{
  "address": "0x6F971B269B0e3b814529B802F080a27f13721E67",
  "abi": [
    {
      "anonymous": false,
      "inputs": [
        {
          "indexed": true,
          "internalType": "address",
          "name": "previousOwner",
          "type": "address"
        },
        {
          "indexed": true,
          "internalType": "address",
          "name": "newOwner",
          "type": "address"
        }
      ],
      "name": "OwnershipTransferred",
      "type": "event"
    },
    {
      "inputs": [
        {
          "internalType": "address[]",
          "name": "_receivers",
          "type": "address[]"
        },
        {
          "internalType": "uint256[]",
          "name": "_amounts",
          "type": "uint256[]"
        },
        {
          "internalType": "address",
          "name": "_token",
          "type": "address"
        },
        {
          "internalType": "address",
          "name": "_from",
          "type": "address"
        }
      ],
      "name": "airdrop",
      "outputs": [],
      "stateMutability": "nonpayable",
      "type": "function"
    },
    {
      "inputs": [],
      "name": "owner",
      "outputs": [
        {
          "internalType": "address",
          "name": "",
          "type": "address"
        }
      ],
      "stateMutability": "view",
      "type": "function"
    },
    {
      "inputs": [],
      "name": "renounceOwnership",
      "outputs": [],
      "stateMutability": "nonpayable",
      "type": "function"
    },
    {
      "inputs": [
        {
          "internalType": "address",
          "name": "newOwner",
          "type": "address"
        }
      ],
      "name": "transferOwnership",
      "outputs": [],
      "stateMutability": "nonpayable",
      "type": "function"
    },
    {
      "stateMutability": "payable",
      "type": "receive"
    }
  ],
  "transactionHash": "0x33edeef5ad0cf1b3d975c62ba09cd65d6546b61537a4cfb1ffc143099f2b08d2",
  "args": [],
  "solcInputHash": "d9db06974f30dce20d94963a4abb199e",
  "bytecode": "0x608060405234801561001057600080fd5b50600061001b61006a565b600080546001600160a01b0319166001600160a01b0383169081178255604051929350917f8be0079c531659141344cd1fd0a4f28419497f9722a3daafe3b4186f6b6457e0908290a35061006e565b3390565b6107d58061007d6000396000f3fe6080604052600436106100435760003560e01c806370239f731461004f578063715018a6146100715780638da5cb5b14610086578063f2fde38b146100b15761004a565b3661004a57005b600080fd5b34801561005b57600080fd5b5061006f61006a3660046104a8565b6100d1565b005b34801561007d57600080fd5b5061006f6101bb565b34801561009257600080fd5b5061009b610244565b6040516100a891906105e0565b60405180910390f35b3480156100bd57600080fd5b5061006f6100cc366004610487565b610253565b6100d9610313565b6001600160a01b03166100ea610244565b6001600160a01b0316146101195760405162461bcd60e51b81526004016101109061068e565b60405180910390fd5b825184511461013a5760405162461bcd60e51b81526004016101109061065e565b835160005b818110156101b3576101a1848488848151811061016c57634e487b7160e01b600052603260045260246000fd5b602002602001015188858151811061019457634e487b7160e01b600052603260045260246000fd5b6020026020010151610317565b806101ab81610762565b91505061013f565b505050505050565b6101c3610313565b6001600160a01b03166101d4610244565b6001600160a01b0316146101fa5760405162461bcd60e51b81526004016101109061068e565b600080546040516001600160a01b03909116907f8be0079c531659141344cd1fd0a4f28419497f9722a3daafe3b4186f6b6457e0908390a3600080546001600160a01b0319169055565b6000546001600160a01b031690565b61025b610313565b6001600160a01b031661026c610244565b6001600160a01b0316146102925760405162461bcd60e51b81526004016101109061068e565b6001600160a01b0381166102b85760405162461bcd60e51b815260040161011090610618565b600080546040516001600160a01b03808516939216917f8be0079c531659141344cd1fd0a4f28419497f9722a3daafe3b4186f6b6457e091a3600080546001600160a01b0319166001600160a01b0392909216919091179055565b3390565b600080856001600160a01b03166323b872dd86868660405160240161033e939291906105f4565b6040516020818303038152906040529060e01b6020820180516001600160e01b03838183161783525050505060405161037791906105a7565b6000604051808303816000865af19150503d80600081146103b4576040519150601f19603f3d011682016040523d82523d6000602084013e6103b9565b606091505b50915091508180156103e35750805115806103e35750808060200190518101906103e39190610587565b6101b35760405162461bcd60e51b8152600401610110906106c3565b80356001600160a01b038116811461041657600080fd5b919050565b600082601f83011261042b578081fd5b8135602061044061043b8361073e565b610714565b828152818101908583018385028701840188101561045c578586fd5b855b8581101561047a5781358452928401929084019060010161045e565b5090979650505050505050565b600060208284031215610498578081fd5b6104a1826103ff565b9392505050565b600080600080608085870312156104bd578283fd5b843567ffffffffffffffff808211156104d4578485fd5b818701915087601f8301126104e7578485fd5b813560206104f761043b8361073e565b82815281810190858301838502870184018d101561051357898afd5b8996505b8487101561053c57610528816103ff565b835260019690960195918301918301610517565b5098505088013592505080821115610552578485fd5b5061055f8782880161041b565b93505061056e604086016103ff565b915061057c606086016103ff565b905092959194509250565b600060208284031215610598578081fd5b815180151581146104a1578182fd5b60008251815b818110156105c757602081860181015185830152016105ad565b818111156105d55782828501525b509190910192915050565b6001600160a01b0391909116815260200190565b6001600160a01b039384168152919092166020820152604081019190915260600190565b60208082526026908201527f4f776e61626c653a206e6577206f776e657220697320746865207a65726f206160408201526564647265737360d01b606082015260800190565b60208082526016908201527513195b99dd1a081cda1bdd5b1908189948195c5d585b60521b604082015260600190565b6020808252818101527f4f776e61626c653a2063616c6c6572206973206e6f7420746865206f776e6572604082015260600190565b60208082526031908201527f54726962654f6e6548656c7065723a3a7472616e7366657246726f6d3a207472604082015270185b9cd9995c919c9bdb4819985a5b1959607a1b606082015260800190565b60405181810167ffffffffffffffff8111828210171561073657610736610789565b604052919050565b600067ffffffffffffffff82111561075857610758610789565b5060209081020190565b600060001982141561078257634e487b7160e01b81526011600452602481fd5b5060010190565b634e487b7160e01b600052604160045260246000fdfea2646970667358221220fcab9c15e03a498a5b257898848e97b6fbb7e7d960fc3d732c106ef2fdece7f264736f6c63430008000033",
  "devdoc": {
    "kind": "dev",
    "methods": {
      "owner()": {
        "details": "Returns the address of the current owner."
      },
      "renounceOwnership()": {
        "details": "Leaves the contract without owner. It will not be possible to call `onlyOwner` functions anymore. Can only be called by the current owner. NOTE: Renouncing ownership will leave the contract without an owner, thereby removing any functionality that is only available to the owner."
      },
      "transferOwnership(address)": {
        "details": "Transfers ownership of the contract to a new account (`newOwner`). Can only be called by the current owner."
      }
    },
    "version": 1
  },
  "userdoc": {
    "kind": "user",
    "methods": {},
    "version": 1
  },
  "storageLayout": {
    "storage": [
      {
        "astId": 7,
        "contract": "contracts/AirdropTribeOne.sol:AirdropTribeOne",
        "label": "_owner",
        "offset": 0,
        "slot": "0",
        "type": "t_address"
      }
    ],
    "types": {
      "t_address": {
        "encoding": "inplace",
        "label": "address",
        "numberOfBytes": "20"
      }
    }
  }
}