{
  "address": "0x997036a4DC288C7d0C7C570e61dCdb54F0a3d6B2",
  "abi": [
    {
      "inputs": [],
      "stateMutability": "nonpayable",
      "type": "constructor"
    },
    {
      "anonymous": false,
      "inputs": [
        {
          "indexed": false,
          "internalType": "address",
          "name": "_sender",
          "type": "address"
        },
        {
          "indexed": false,
          "internalType": "address",
          "name": "_asset",
          "type": "address"
        }
      ],
      "name": "AddAvailableCollateralAsset",
      "type": "event"
    },
    {
      "anonymous": false,
      "inputs": [
        {
          "indexed": false,
          "internalType": "address",
          "name": "_sender",
          "type": "address"
        },
        {
          "indexed": false,
          "internalType": "address",
          "name": "_asset",
          "type": "address"
        }
      ],
      "name": "AddAvailableLoanAsset",
      "type": "event"
    },
    {
      "anonymous": false,
      "inputs": [
        {
          "indexed": true,
          "internalType": "address",
          "name": "previousOwner",
          "type": "address"
        },
        {
          "indexed": true,
          "internalType": "address",
          "name": "newOwner",
          "type": "address"
        }
      ],
      "name": "OwnershipTransferred",
      "type": "event"
    },
    {
      "anonymous": false,
      "inputs": [
        {
          "indexed": false,
          "internalType": "address",
          "name": "_sender",
          "type": "address"
        },
        {
          "indexed": false,
          "internalType": "address",
          "name": "_asset",
          "type": "address"
        }
      ],
      "name": "RemoveAvailableCollateralAsset",
      "type": "event"
    },
    {
      "anonymous": false,
      "inputs": [
        {
          "indexed": false,
          "internalType": "address",
          "name": "_sender",
          "type": "address"
        },
        {
          "indexed": false,
          "internalType": "address",
          "name": "_asset",
          "type": "address"
        }
      ],
      "name": "RemoveAvailableLoanAsset",
      "type": "event"
    },
    {
      "anonymous": false,
      "inputs": [
        {
          "indexed": false,
          "internalType": "address",
          "name": "_setter",
          "type": "address"
        },
        {
          "indexed": false,
          "internalType": "address",
          "name": "_consumer",
          "type": "address"
        }
      ],
      "name": "SetConsumer",
      "type": "event"
    },
    {
      "anonymous": false,
      "inputs": [
        {
          "indexed": true,
          "internalType": "address",
          "name": "_requester",
          "type": "address"
        },
        {
          "indexed": false,
          "internalType": "address",
          "name": "_to",
          "type": "address"
        },
        {
          "indexed": false,
          "internalType": "address",
          "name": "_token",
          "type": "address"
        },
        {
          "indexed": false,
          "internalType": "uint256",
          "name": "_amount",
          "type": "uint256"
        }
      ],
      "name": "TransferAsset",
      "type": "event"
    },
    {
      "anonymous": false,
      "inputs": [
        {
          "indexed": true,
          "internalType": "address",
          "name": "_to",
          "type": "address"
        },
        {
          "indexed": false,
          "internalType": "address",
          "name": "_token",
          "type": "address"
        },
        {
          "indexed": false,
          "internalType": "uint256",
          "name": "_amount",
          "type": "uint256"
        }
      ],
      "name": "WithdrawAsset",
      "type": "event"
    },
    {
      "inputs": [
        {
          "internalType": "address",
          "name": "_asset",
          "type": "address"
        }
      ],
      "name": "addAvailableCollateralAsset",
      "outputs": [],
      "stateMutability": "nonpayable",
      "type": "function"
    },
    {
      "inputs": [
        {
          "internalType": "address",
          "name": "_asset",
          "type": "address"
        }
      ],
      "name": "addAvailableLoanAsset",
      "outputs": [],
      "stateMutability": "nonpayable",
      "type": "function"
    },
    {
      "inputs": [],
      "name": "consumer",
      "outputs": [
        {
          "internalType": "address",
          "name": "",
          "type": "address"
        }
      ],
      "stateMutability": "view",
      "type": "function"
    },
    {
      "inputs": [
        {
          "internalType": "address",
          "name": "_asset",
          "type": "address"
        }
      ],
      "name": "isAvailableCollateralAsset",
      "outputs": [
        {
          "internalType": "bool",
          "name": "",
          "type": "bool"
        }
      ],
      "stateMutability": "view",
      "type": "function"
    },
    {
      "inputs": [
        {
          "internalType": "address",
          "name": "_asset",
          "type": "address"
        }
      ],
      "name": "isAvailableLoanAsset",
      "outputs": [
        {
          "internalType": "bool",
          "name": "",
          "type": "bool"
        }
      ],
      "stateMutability": "view",
      "type": "function"
    },
    {
      "inputs": [],
      "name": "owner",
      "outputs": [
        {
          "internalType": "address",
          "name": "",
          "type": "address"
        }
      ],
      "stateMutability": "view",
      "type": "function"
    },
    {
      "inputs": [
        {
          "internalType": "address",
          "name": "_asset",
          "type": "address"
        }
      ],
      "name": "removeAvailableCollateralAsset",
      "outputs": [],
      "stateMutability": "nonpayable",
      "type": "function"
    },
    {
      "inputs": [
        {
          "internalType": "address",
          "name": "_asset",
          "type": "address"
        }
      ],
      "name": "removeAvailableLoanAsset",
      "outputs": [],
      "stateMutability": "nonpayable",
      "type": "function"
    },
    {
      "inputs": [],
      "name": "renounceOwnership",
      "outputs": [],
      "stateMutability": "nonpayable",
      "type": "function"
    },
    {
      "inputs": [
        {
          "internalType": "address",
          "name": "_to",
          "type": "address"
        },
        {
          "internalType": "uint256",
          "name": "_amount",
          "type": "uint256"
        }
      ],
      "name": "requestETH",
      "outputs": [],
      "stateMutability": "nonpayable",
      "type": "function"
    },
    {
      "inputs": [
        {
          "internalType": "address",
          "name": "_to",
          "type": "address"
        },
        {
          "internalType": "address",
          "name": "_token",
          "type": "address"
        },
        {
          "internalType": "uint256",
          "name": "_amount",
          "type": "uint256"
        }
      ],
      "name": "requestToken",
      "outputs": [],
      "stateMutability": "nonpayable",
      "type": "function"
    },
    {
      "inputs": [
        {
          "internalType": "address",
          "name": "_consumer_",
          "type": "address"
        }
      ],
      "name": "setConsumer",
      "outputs": [],
      "stateMutability": "nonpayable",
      "type": "function"
    },
    {
      "inputs": [
        {
          "internalType": "address",
          "name": "newOwner",
          "type": "address"
        }
      ],
      "name": "transferOwnership",
      "outputs": [],
      "stateMutability": "nonpayable",
      "type": "function"
    },
    {
      "inputs": [
        {
          "internalType": "address",
          "name": "_to",
          "type": "address"
        },
        {
          "internalType": "address",
          "name": "_token",
          "type": "address"
        },
        {
          "internalType": "uint256",
          "name": "_amount",
          "type": "uint256"
        }
      ],
      "name": "withdrawAsset",
      "outputs": [],
      "stateMutability": "nonpayable",
      "type": "function"
    },
    {
      "stateMutability": "payable",
      "type": "receive"
    }
  ],
  "transactionHash": "0x219451217221e9c6bb7c6fd4284a06a14494f7db2ed09dcce5e25dade5cb8e79",
  "args": [],
  "solcInputHash": "2acf1af45a8b7a0d0137be188f55b5d9",
  "bytecode": "0x608060405234801561001057600080fd5b50600061001b6100d1565b600080546001600160a01b0319166001600160a01b0383169081178255604051929350917f8be0079c531659141344cd1fd0a4f28419497f9722a3daafe3b4186f6b6457e0908290a3506001808055600080527f3617319a054d772f909f7c479a2cebe5066e836a939412e32403c99029b92eff805460ff19908116831790915560026020527fac33ff75c19e70fe83507db0d683fd3465c996598dc972688b7ace676c89077b805490911690911790556100d5565b3390565b6112c1806100e46000396000f3fe6080604052600436106100e15760003560e01c80636f59503f1161007f578063b4fd729611610059578063b4fd72961461023c578063cc16574114610251578063e9ad871c14610271578063f2fde38b14610291576100e8565b80636f59503f146101e5578063715018a6146102055780638da5cb5b1461021a576100e8565b806345d999e5116100bb57806345d999e51461016557806346355931146101855780634965162a146101a557806363a579d5146101c5576100e8565b806303a45b2e146100ed57806308409d771461010f578063092ae4dc14610145576100e8565b366100e857005b600080fd5b3480156100f957600080fd5b5061010d610108366004610e3b565b6102b1565b005b34801561011b57600080fd5b5061012f61012a366004610e3b565b6103c1565b60405161013c9190610f9c565b60405180910390f35b34801561015157600080fd5b5061010d610160366004610e5c565b6103e3565b34801561017157600080fd5b5061010d610180366004610e3b565b6104ba565b34801561019157600080fd5b5061010d6101a0366004610e3b565b6105af565b3480156101b157600080fd5b5061010d6101c0366004610e5c565b6106a3565b3480156101d157600080fd5b5061010d6101e0366004610e3b565b6107b2565b3480156101f157600080fd5b5061010d610200366004610e97565b61089d565b34801561021157600080fd5b5061010d61093b565b34801561022657600080fd5b5061022f6109c4565b60405161013c9190610f31565b34801561024857600080fd5b5061022f6109d3565b34801561025d57600080fd5b5061012f61026c366004610e3b565b6109e2565b34801561027d57600080fd5b5061010d61028c366004610e3b565b610a00565b34801561029d57600080fd5b5061010d6102ac366004610e3b565b610af1565b6102b9610bb1565b6001600160a01b03166102ca6109c4565b6001600160a01b0316146102f95760405162461bcd60e51b81526004016102f09061112b565b60405180910390fd5b6002600154141561031c5760405162461bcd60e51b81526004016102f090611200565b600260018190556001600160a01b0382166000908152602091909152604090205460ff161561035d5760405162461bcd60e51b81526004016102f09061104a565b6001600160a01b03811660009081526002602052604090819020805460ff19166001179055517f4b8552befb3575c2944a1c44b568d5e87187e79de48331fd45ab251f09b281f4906103b29033908490610f45565b60405180910390a15060018055565b6001600160a01b03811660009081526003602052604090205460ff165b919050565b6103eb610bb1565b6001600160a01b03166103fc6109c4565b6001600160a01b0316146104225760405162461bcd60e51b81526004016102f09061112b565b6001600160a01b0383166104485760405162461bcd60e51b81526004016102f090611189565b6001600160a01b0382166104675750476104623382610bb5565b610472565b610472823383610c47565b826001600160a01b03167f603c9f8bbe22d703e50963d4ec4d2aea4f7c8dd28de33bf36de740e5817fe31183836040516104ad929190610f83565b60405180910390a2505050565b6104c2610bb1565b6001600160a01b03166104d36109c4565b6001600160a01b0316146104f95760405162461bcd60e51b81526004016102f09061112b565b6002600154141561051c5760405162461bcd60e51b81526004016102f090611200565b60026001556001600160a01b03811660009081526003602052604090205460ff161561055a5760405162461bcd60e51b81526004016102f09061104a565b6001600160a01b03811660009081526003602052604090819020805460ff19166001179055517f900809311d03ed855b3a322b8e963ca5b93bb69992987393e671eda26bec59e1906103b29033908490610f45565b6105b7610bb1565b6001600160a01b03166105c86109c4565b6001600160a01b0316146105ee5760405162461bcd60e51b81526004016102f09061112b565b600260015414156106115760405162461bcd60e51b81526004016102f090611200565b600260018190556001600160a01b0382166000908152602091909152604090205460ff166106515760405162461bcd60e51b81526004016102f090611160565b6001600160a01b03811660009081526002602052604090819020805460ff19169055517ff243657fe92d46df5f68763dd9f8e707b4d09bfc34409b17fbf1433a52141802906103b29033908490610f45565b6004546001600160a01b031633146106cd5760405162461bcd60e51b81526004016102f090610fed565b6040516370a0823160e01b815281906001600160a01b038416906370a08231906106fb903090600401610f31565b60206040518083038186803b15801561071357600080fd5b505afa158015610727573d6000803e3d6000fd5b505050506040513d601f19601f8201168201806040525081019061074b9190610ee0565b10156107695760405162461bcd60e51b81526004016102f0906110e8565b61077582308584610d34565b336001600160a01b03167ff808703b6316618a6ee95fff3bf2181070b23daeec601dc3c6ef8b1869c65d0b8484846040516104ad93929190610f5f565b6107ba610bb1565b6001600160a01b03166107cb6109c4565b6001600160a01b0316146107f15760405162461bcd60e51b81526004016102f09061112b565b6004546001600160a01b038281169116141561081f5760405162461bcd60e51b81526004016102f090611013565b6001600160a01b0381166108455760405162461bcd60e51b81526004016102f0906110c2565b600480546001600160a01b0319166001600160a01b0383161790556040517ff6b99d0f2b141c9cb65850bcc5e4e65803781156968314aebb7367321f1c8a39906108929033908490610f45565b60405180910390a150565b6004546001600160a01b031633146108c75760405162461bcd60e51b81526004016102f090610fed565b804710156108e75760405162461bcd60e51b81526004016102f0906110e8565b6108f18282610bb5565b336001600160a01b03167ff808703b6316618a6ee95fff3bf2181070b23daeec601dc3c6ef8b1869c65d0b8360008460405161092f93929190610f5f565b60405180910390a25050565b610943610bb1565b6001600160a01b03166109546109c4565b6001600160a01b03161461097a5760405162461bcd60e51b81526004016102f09061112b565b600080546040516001600160a01b03909116907f8be0079c531659141344cd1fd0a4f28419497f9722a3daafe3b4186f6b6457e0908390a3600080546001600160a01b0319169055565b6000546001600160a01b031690565b6004546001600160a01b031690565b6001600160a01b031660009081526002602052604090205460ff1690565b610a08610bb1565b6001600160a01b0316610a196109c4565b6001600160a01b031614610a3f5760405162461bcd60e51b81526004016102f09061112b565b60026001541415610a625760405162461bcd60e51b81526004016102f090611200565b60026001556001600160a01b03811660009081526003602052604090205460ff16610a9f5760405162461bcd60e51b81526004016102f090611160565b6001600160a01b03811660009081526003602052604090819020805460ff19169055517fbdbdc6b1de4a38b46320e6e465b6f0125fa919c9a3400a8d57b4a27434c50521906103b29033908490610f45565b610af9610bb1565b6001600160a01b0316610b0a6109c4565b6001600160a01b031614610b305760405162461bcd60e51b81526004016102f09061112b565b6001600160a01b038116610b565760405162461bcd60e51b81526004016102f090610fa7565b600080546040516001600160a01b03808516939216917f8be0079c531659141344cd1fd0a4f28419497f9722a3daafe3b4186f6b6457e091a3600080546001600160a01b0319166001600160a01b0392909216919091179055565b3390565b604080516000808252602082019092526001600160a01b038416908390604051610bdf9190610ef8565b60006040518083038185875af1925050503d8060008114610c1c576040519150601f19603f3d011682016040523d82523d6000602084013e610c21565b606091505b5050905080610c425760405162461bcd60e51b81526004016102f090611237565b505050565b600080846001600160a01b031663a9059cbb8585604051602401610c6c929190610f83565b6040516020818303038152906040529060e01b6020820180516001600160e01b038381831617835250505050604051610ca59190610ef8565b6000604051808303816000865af19150503d8060008114610ce2576040519150601f19603f3d011682016040523d82523d6000602084013e610ce7565b606091505b5091509150818015610d11575080511580610d11575080806020019051810190610d119190610ec0565b610d2d5760405162461bcd60e51b81526004016102f090611075565b5050505050565b600080856001600160a01b03166323b872dd868686604051602401610d5b93929190610f5f565b6040516020818303038152906040529060e01b6020820180516001600160e01b038381831617835250505050604051610d949190610ef8565b6000604051808303816000865af19150503d8060008114610dd1576040519150601f19603f3d011682016040523d82523d6000602084013e610dd6565b606091505b5091509150818015610e00575080511580610e00575080806020019051810190610e009190610ec0565b610e1c5760405162461bcd60e51b81526004016102f0906111af565b505050505050565b80356001600160a01b03811681146103de57600080fd5b600060208284031215610e4c578081fd5b610e5582610e24565b9392505050565b600080600060608486031215610e70578182fd5b610e7984610e24565b9250610e8760208501610e24565b9150604084013590509250925092565b60008060408385031215610ea9578182fd5b610eb283610e24565b946020939093013593505050565b600060208284031215610ed1578081fd5b81518015158114610e55578182fd5b600060208284031215610ef1578081fd5b5051919050565b60008251815b81811015610f185760208186018101518583015201610efe565b81811115610f265782828501525b509190910192915050565b6001600160a01b0391909116815260200190565b6001600160a01b0392831681529116602082015260400190565b6001600160a01b039384168152919092166020820152604081019190915260600190565b6001600160a01b03929092168252602082015260400190565b901515815260200190565b60208082526026908201527f4f776e61626c653a206e6577206f776e657220697320746865207a65726f206160408201526564647265737360d01b606082015260800190565b6020808252600c908201526b2737ba1031b7b739bab6b2b960a11b604082015260600190565b60208082526017908201527f416c72656164792073657420617320636f6e73756d6572000000000000000000604082015260600190565b602080825260119082015270416c726561647920617661696c61626c6560781b604082015260600190565b6020808252602d908201527f54726962654f6e6548656c7065723a3a736166655472616e736665723a20747260408201526c185b9cd9995c8819985a5b1959609a1b606082015260800190565b6020808252600c908201526b5a45524f5f4144445245535360a01b604082015260600190565b60208082526023908201527f4173736574204d616e616765723a20496e73756666696369656e742062616c616040820152626e636560e81b606082015260800190565b6020808252818101527f4f776e61626c653a2063616c6c6572206973206e6f7420746865206f776e6572604082015260600190565b6020808252600f908201526e105b1c9958591e481c995b5bdd9959608a1b604082015260600190565b6020808252600c908201526b5a45524f204164647265737360a01b604082015260600190565b60208082526031908201527f54726962654f6e6548656c7065723a3a7472616e7366657246726f6d3a207472604082015270185b9cd9995c919c9bdb4819985a5b1959607a1b606082015260800190565b6020808252601f908201527f5265656e7472616e637947756172643a207265656e7472616e742063616c6c00604082015260600190565b60208082526034908201527f54726962654f6e6548656c7065723a3a736166655472616e736665724554483a60408201527308115512081d1c985b9cd9995c8819985a5b195960621b60608201526080019056fea2646970667358221220a638c1ac487566172832e7d93f2d779f87fffc837d7630091b2a362fba5cbb7f64736f6c63430008000033",
  "devdoc": {
    "kind": "dev",
    "methods": {
      "owner()": {
        "details": "Returns the address of the current owner."
      },
      "renounceOwnership()": {
        "details": "Leaves the contract without owner. It will not be possible to call `onlyOwner` functions anymore. Can only be called by the current owner. NOTE: Renouncing ownership will leave the contract without an owner, thereby removing any functionality that is only available to the owner."
      },
      "transferOwnership(address)": {
        "details": "Transfers ownership of the contract to a new account (`newOwner`). Can only be called by the current owner."
      }
    },
    "version": 1
  },
  "userdoc": {
    "kind": "user",
    "methods": {},
    "version": 1
  },
  "storageLayout": {
    "storage": [
      {
        "astId": 7,
        "contract": "contracts/AssetManager.sol:AssetManager",
        "label": "_owner",
        "offset": 0,
        "slot": "0",
        "type": "t_address"
      },
      {
        "astId": 120,
        "contract": "contracts/AssetManager.sol:AssetManager",
        "label": "_status",
        "offset": 0,
        "slot": "1",
        "type": "t_uint256"
      },
      {
        "astId": 4426,
        "contract": "contracts/AssetManager.sol:AssetManager",
        "label": "availableLoanAsset",
        "offset": 0,
        "slot": "2",
        "type": "t_mapping(t_address,t_bool)"
      },
      {
        "astId": 4430,
        "contract": "contracts/AssetManager.sol:AssetManager",
        "label": "availableCollateralAsset",
        "offset": 0,
        "slot": "3",
        "type": "t_mapping(t_address,t_bool)"
      },
      {
        "astId": 4432,
        "contract": "contracts/AssetManager.sol:AssetManager",
        "label": "_consumer",
        "offset": 0,
        "slot": "4",
        "type": "t_address"
      }
    ],
    "types": {
      "t_address": {
        "encoding": "inplace",
        "label": "address",
        "numberOfBytes": "20"
      },
      "t_bool": {
        "encoding": "inplace",
        "label": "bool",
        "numberOfBytes": "1"
      },
      "t_mapping(t_address,t_bool)": {
        "encoding": "mapping",
        "key": "t_address",
        "label": "mapping(address => bool)",
        "numberOfBytes": "32",
        "value": "t_bool"
      },
      "t_uint256": {
        "encoding": "inplace",
        "label": "uint256",
        "numberOfBytes": "32"
      }
    }
  }
}