{
  "address": "0x153A2FC88aC5EDDBC915A0c3d3c1B86ce8F84842",
  "abi": [
    {
      "inputs": [
        {
          "internalType": "address[]",
          "name": "_signers",
          "type": "address[]"
        },
        {
          "internalType": "uint256",
          "name": "_numConfirmationsRequired",
          "type": "uint256"
        }
      ],
      "stateMutability": "nonpayable",
      "type": "constructor"
    },
    {
      "anonymous": false,
      "inputs": [
        {
          "indexed": true,
          "internalType": "address",
          "name": "signer",
          "type": "address"
        },
        {
          "indexed": true,
          "internalType": "uint256",
          "name": "txIndex",
          "type": "uint256"
        }
      ],
      "name": "ConfirmTransaction",
      "type": "event"
    },
    {
      "anonymous": false,
      "inputs": [
        {
          "indexed": true,
          "internalType": "address",
          "name": "sender",
          "type": "address"
        },
        {
          "indexed": false,
          "internalType": "uint256",
          "name": "amount",
          "type": "uint256"
        },
        {
          "indexed": false,
          "internalType": "uint256",
          "name": "balance",
          "type": "uint256"
        }
      ],
      "name": "Deposit",
      "type": "event"
    },
    {
      "anonymous": false,
      "inputs": [
        {
          "indexed": true,
          "internalType": "address",
          "name": "signer",
          "type": "address"
        },
        {
          "indexed": true,
          "internalType": "uint256",
          "name": "txIndex",
          "type": "uint256"
        }
      ],
      "name": "ExecuteTransaction",
      "type": "event"
    },
    {
      "anonymous": false,
      "inputs": [
        {
          "indexed": true,
          "internalType": "address",
          "name": "signer",
          "type": "address"
        },
        {
          "indexed": true,
          "internalType": "uint256",
          "name": "txIndex",
          "type": "uint256"
        }
      ],
      "name": "RevokeConfirmation",
      "type": "event"
    },
    {
      "anonymous": false,
      "inputs": [
        {
          "indexed": true,
          "internalType": "address",
          "name": "signer",
          "type": "address"
        },
        {
          "indexed": true,
          "internalType": "uint256",
          "name": "txIndex",
          "type": "uint256"
        },
        {
          "indexed": true,
          "internalType": "address",
          "name": "to",
          "type": "address"
        },
        {
          "indexed": false,
          "internalType": "uint256",
          "name": "value",
          "type": "uint256"
        },
        {
          "indexed": false,
          "internalType": "bytes",
          "name": "data",
          "type": "bytes"
        }
      ],
      "name": "SubmitTransaction",
      "type": "event"
    },
    {
      "inputs": [
        {
          "internalType": "uint256",
          "name": "_txIndex",
          "type": "uint256"
        },
        {
          "internalType": "bool",
          "name": "_execute",
          "type": "bool"
        }
      ],
      "name": "confirmTransaction",
      "outputs": [],
      "stateMutability": "nonpayable",
      "type": "function"
    },
    {
      "inputs": [
        {
          "internalType": "uint256",
          "name": "_txIndex",
          "type": "uint256"
        }
      ],
      "name": "executeTransaction",
      "outputs": [],
      "stateMutability": "nonpayable",
      "type": "function"
    },
    {
      "inputs": [],
      "name": "getSigners",
      "outputs": [
        {
          "internalType": "address[]",
          "name": "",
          "type": "address[]"
        }
      ],
      "stateMutability": "view",
      "type": "function"
    },
    {
      "inputs": [
        {
          "internalType": "uint256",
          "name": "_txIndex",
          "type": "uint256"
        }
      ],
      "name": "getTransaction",
      "outputs": [
        {
          "internalType": "address",
          "name": "to",
          "type": "address"
        },
        {
          "internalType": "uint256",
          "name": "value",
          "type": "uint256"
        },
        {
          "internalType": "bytes",
          "name": "data",
          "type": "bytes"
        },
        {
          "internalType": "bool",
          "name": "executed",
          "type": "bool"
        },
        {
          "internalType": "uint256",
          "name": "numConfirmations",
          "type": "uint256"
        }
      ],
      "stateMutability": "view",
      "type": "function"
    },
    {
      "inputs": [],
      "name": "getTransactionCount",
      "outputs": [
        {
          "internalType": "uint256",
          "name": "",
          "type": "uint256"
        }
      ],
      "stateMutability": "view",
      "type": "function"
    },
    {
      "inputs": [
        {
          "internalType": "uint256",
          "name": "",
          "type": "uint256"
        },
        {
          "internalType": "address",
          "name": "",
          "type": "address"
        }
      ],
      "name": "isConfirmed",
      "outputs": [
        {
          "internalType": "bool",
          "name": "",
          "type": "bool"
        }
      ],
      "stateMutability": "view",
      "type": "function"
    },
    {
      "inputs": [
        {
          "internalType": "address",
          "name": "",
          "type": "address"
        }
      ],
      "name": "isSigner",
      "outputs": [
        {
          "internalType": "bool",
          "name": "",
          "type": "bool"
        }
      ],
      "stateMutability": "view",
      "type": "function"
    },
    {
      "inputs": [],
      "name": "numConfirmationsRequired",
      "outputs": [
        {
          "internalType": "uint256",
          "name": "",
          "type": "uint256"
        }
      ],
      "stateMutability": "view",
      "type": "function"
    },
    {
      "inputs": [
        {
          "internalType": "uint256",
          "name": "_txIndex",
          "type": "uint256"
        }
      ],
      "name": "revokeConfirmation",
      "outputs": [],
      "stateMutability": "nonpayable",
      "type": "function"
    },
    {
      "inputs": [
        {
          "internalType": "uint256",
          "name": "",
          "type": "uint256"
        }
      ],
      "name": "signers",
      "outputs": [
        {
          "internalType": "address",
          "name": "",
          "type": "address"
        }
      ],
      "stateMutability": "view",
      "type": "function"
    },
    {
      "inputs": [
        {
          "internalType": "address",
          "name": "_to",
          "type": "address"
        },
        {
          "internalType": "uint256",
          "name": "_value",
          "type": "uint256"
        },
        {
          "internalType": "bytes",
          "name": "_data",
          "type": "bytes"
        }
      ],
      "name": "submitTransaction",
      "outputs": [],
      "stateMutability": "payable",
      "type": "function"
    },
    {
      "stateMutability": "payable",
      "type": "receive"
    }
  ],
  "transactionHash": "0xf7bdd12847bd1a05e1503f916a0e9d56b4a6f1aa472c9c8b9afb0a5a8c85c381",
  "args": [
    [
      "0x6C641CE6A7216F12d28692f9d8b2BDcdE812eD2b",
      "0xDEfd29b83702cC5dA21a65Eed1FEC2CEAB768074",
      "0x8c7D7aB71Bb76F1fdfB9525DD25E4e060fa0995A",
      "0x9C702CC077FE63F0BA5b69dac3861ed5727778c9",
      "0x69927ab9c9937f36312958E192d27819522eeEC9",
      "0xb89e07389A98f6FA9bee9c4De220E95eba30Abe9",
      "0x9066FDDc2672Ea3faA20B377126e3f3Fe0221775",
      "0x495A1abaB1A5E2c71BAe9E686309704032D61939"
    ],
    2
  ],
  "solcInputHash": "022ddec237f5a0a0c9eeb2d302dd7e90",
  "bytecode": "0x60806040523480156200001157600080fd5b506040516200150c3803806200150c8339810160408190526200003491620001de565b60016000558151620000635760405162461bcd60e51b81526004016200005a90620002dc565b60405180910390fd5b60008111801562000075575081518111155b620000945760405162461bcd60e51b81526004016200005a9062000331565b60005b8251811015620001b6576000838281518110620000c457634e487b7160e01b600052603260045260246000fd5b6020026020010151905060006001600160a01b0316816001600160a01b03161415620001045760405162461bcd60e51b81526004016200005a90620002b4565b6001600160a01b03811660009081526002602052604090205460ff1615620001405760405162461bcd60e51b81526004016200005a9062000306565b6001600160a01b03166000818152600260205260408120805460ff191660019081179091558054808201825591527fb10e2d527612073b26eecdfd717e6a320cf44b4afac2b0732d9fcbe2b7fa0cf60180546001600160a01b031916909117905580620001ad8162000379565b91505062000097565b5060035550620003b7565b80516001600160a01b0381168114620001d957600080fd5b919050565b60008060408385031215620001f1578182fd5b82516001600160401b038082111562000208578384fd5b818501915085601f8301126200021c578384fd5b8151602082821115620002335762000233620003a1565b80820260405182828201018181108682111715620002555762000255620003a1565b604052838152828101945085830182870184018b101562000274578889fd5b8896505b84871015620002a1576200028c81620001c1565b86526001969096019594830194830162000278565b5097909101519698969750505050505050565b6020808252600e908201526d34b73b30b634b21039b4b3b732b960911b604082015260600190565b60208082526010908201526f1cda59db995c9cc81c995c5d5a5c995960821b604082015260600190565b6020808252601190820152707369676e6572206e6f7420756e6971756560781b604082015260600190565b60208082526028908201527f696e76616c6964206e756d626572206f6620726571756972656420636f6e6669604082015267726d6174696f6e7360c01b606082015260800190565b60006000198214156200039a57634e487b7160e01b81526011600452602481fd5b5060010190565b634e487b7160e01b600052604160045260246000fd5b61114580620003c76000396000f3fe6080604052600436106100a05760003560e01c806380f59a651161006457806380f59a65146101c757806394cf795e146101e7578063c642747414610209578063c6a725d81461021c578063d0549b851461023c578063ee22610b14610251576100ea565b80632079fb9a146100ef57806320ea8d86146101255780632e7700f01461014757806333ea3dc8146101695780637df73e271461019a576100ea565b366100ea57336001600160a01b03167f90890809c654f11d6e72a28fa60149770a0d11ec6c92319d6ceb2bb0a4ea1a1534476040516100e092919061105f565b60405180910390a2005b600080fd5b3480156100fb57600080fd5b5061010f61010a366004610cae565b610271565b60405161011c9190610e0a565b60405180910390f35b34801561013157600080fd5b50610145610140366004610cae565b61029b565b005b34801561015357600080fd5b5061015c61041f565b60405161011c9190611035565b34801561017557600080fd5b50610189610184366004610cae565b610425565b60405161011c959493929190610e1e565b3480156101a657600080fd5b506101ba6101b5366004610bd0565b610554565b60405161011c9190610ea6565b3480156101d357600080fd5b506101ba6101e2366004610cc6565b610569565b3480156101f357600080fd5b506101fc610589565b60405161011c9190610e59565b610145610217366004610bf1565b6105eb565b34801561022857600080fd5b50610145610237366004610cf1565b6107bd565b34801561024857600080fd5b5061015c610969565b34801561025d57600080fd5b5061014561026c366004610cae565b61096f565b6001818154811061028157600080fd5b6000918252602090912001546001600160a01b0316905081565b3360009081526002602052604090205460ff166102d35760405162461bcd60e51b81526004016102ca90610eb1565b60405180910390fd5b600554819081106102f65760405162461bcd60e51b81526004016102ca90610ef8565b816005818154811061031857634e487b7160e01b600052603260045260246000fd5b600091825260209091206003600590920201015460ff161561034c5760405162461bcd60e51b81526004016102ca90610f7c565b60006005848154811061036f57634e487b7160e01b600052603260045260246000fd5b600091825260208083208784526004825260408085203386529092529220546005909102909101915060ff166103b75760405162461bcd60e51b81526004016102ca90610fa9565b60018160040160008282546103cc9190611091565b90915550506000848152600460209081526040808320338085529252808320805460ff191690555186927ff0dca620e2e81f7841d07bcc105e1704fb01475b278a9d4c236e1c62945edd5591a350505050565b60055490565b60008060606000808560058054905081106104525760405162461bcd60e51b81526004016102ca90610ef8565b60006005888154811061047557634e487b7160e01b600052603260045260246000fd5b6000918252602090912060059091020180546001820154600383015460048401546002850180549596506001600160a01b039094169492939260ff9092169183906104bf906110a8565b80601f01602080910402602001604051908101604052809291908181526020018280546104eb906110a8565b80156105385780601f1061050d57610100808354040283529160200191610538565b820191906000526020600020905b81548152906001019060200180831161051b57829003601f168201915b5050505050925096509650965096509650505091939590929450565b60026020526000908152604090205460ff1681565b600460209081526000928352604080842090915290825290205460ff1681565b606060018054806020026020016040519081016040528092919081815260200182805480156105e157602002820191906000526020600020905b81546001600160a01b031681526001909101906020018083116105c3575b5050505050905090565b3360009081526002602052604090205460ff1661061a5760405162461bcd60e51b81526004016102ca90610eb1565b6002600054141561063d5760405162461bcd60e51b81526004016102ca90610fd3565b60026000558115610667578134146106675760405162461bcd60e51b81526004016102ca90610f51565b600580546040805160a0810182526001600160a01b03878116825260208083018881529383018781526000606085018190526080850181905260018701885587905283517f036b6384b5eca791c62761152d0c79bb0604c104a5fb6f4eb0703f3154bb3db097870297880180546001600160a01b0319169190941617835593517f036b6384b5eca791c62761152d0c79bb0604c104a5fb6f4eb0703f3154bb3db187015592518051949592949193610744937f036b6384b5eca791c62761152d0c79bb0604c104a5fb6f4eb0703f3154bb3db20192910190610b1b565b50606082015160038201805460ff19169115159190911790556080909101516004909101556040516001600160a01b03851690829033907fd5a05bf70715ad82a09a756320284a1b54c9ff74cd0f8cce6219e79b563fe59d906107aa908890889061103e565b60405180910390a4505060016000555050565b3360009081526002602052604090205460ff166107ec5760405162461bcd60e51b81526004016102ca90610eb1565b6005548290811061080f5760405162461bcd60e51b81526004016102ca90610ef8565b826005818154811061083157634e487b7160e01b600052603260045260246000fd5b600091825260209091206003600590920201015460ff16156108655760405162461bcd60e51b81526004016102ca90610f7c565b6000848152600460209081526040808320338452909152902054849060ff16156108a15760405162461bcd60e51b81526004016102ca90610f23565b6000600586815481106108c457634e487b7160e01b600052603260045260246000fd5b6000918252602080832089845260048083526040808620338752909352918420805460ff19166001908117909155600590930201908101805491945091929061090e908490611079565b9091555050604051869033907f5cbe105e36805f7820e291f799d5794ff948af2a5f664e580382defb6339004190600090a36003548160040154101580156109535750845b15610961576109618661097b565b505050505050565b60035481565b6109788161097b565b50565b6005548190811061099e5760405162461bcd60e51b81526004016102ca90610ef8565b81600581815481106109c057634e487b7160e01b600052603260045260246000fd5b600091825260209091206003600590920201015460ff16156109f45760405162461bcd60e51b81526004016102ca90610f7c565b600060058481548110610a1757634e487b7160e01b600052603260045260246000fd5b9060005260206000209060050201905060035481600401541015610a4d5760405162461bcd60e51b81526004016102ca9061100a565b60038101805460ff191660019081179091558154908201546040516000926001600160a01b03169190610a84906002860190610d6f565b60006040518083038185875af1925050503d8060008114610ac1576040519150601f19603f3d011682016040523d82523d6000602084013e610ac6565b606091505b5050905080610ae75760405162461bcd60e51b81526004016102ca90610ed5565b604051859033907f5445f318f4f5fcfb66592e68e0cc5822aa15664039bd5f0ffde24c5a8142b1ac90600090a35050505050565b828054610b27906110a8565b90600052602060002090601f016020900481019282610b495760008555610b8f565b82601f10610b6257805160ff1916838001178555610b8f565b82800160010185558215610b8f579182015b82811115610b8f578251825591602001919060010190610b74565b50610b9b929150610b9f565b5090565b5b80821115610b9b5760008155600101610ba0565b80356001600160a01b0381168114610bcb57600080fd5b919050565b600060208284031215610be1578081fd5b610bea82610bb4565b9392505050565b600080600060608486031215610c05578182fd5b610c0e84610bb4565b92506020808501359250604085013567ffffffffffffffff80821115610c32578384fd5b818701915087601f830112610c45578384fd5b813581811115610c5757610c576110f9565b604051601f8201601f1916810185018381118282101715610c7a57610c7a6110f9565b60405281815283820185018a1015610c90578586fd5b81858501868301378585838301015280955050505050509250925092565b600060208284031215610cbf578081fd5b5035919050565b60008060408385031215610cd8578182fd5b82359150610ce860208401610bb4565b90509250929050565b60008060408385031215610d03578182fd5b8235915060208301358015158114610d19578182fd5b809150509250929050565b60008151808452815b81811015610d4957602081850181015186830182015201610d2d565b81811115610d5a5782602083870101525b50601f01601f19169290920160200192915050565b8154600090819060028104600180831680610d8b57607f831692505b6020808410821415610dab57634e487b7160e01b87526022600452602487fd5b818015610dbf5760018114610dd057610dfc565b60ff19861689528489019650610dfc565b610dd98a61106d565b885b86811015610df45781548b820152908501908301610ddb565b505084890196505b509498975050505050505050565b6001600160a01b0391909116815260200190565b600060018060a01b038716825285602083015260a06040830152610e4560a0830186610d24565b931515606083015250608001529392505050565b6020808252825182820181905260009190848201906040850190845b81811015610e9a5783516001600160a01b031683529284019291840191600101610e75565b50909695505050505050565b901515815260200190565b6020808252600a90820152693737ba1039b4b3b732b960b11b604082015260600190565b6020808252600990820152681d1e0819985a5b195960ba1b604082015260600190565b6020808252601190820152701d1e08191bd95cc81b9bdd08195e1a5cdd607a1b604082015260600190565b6020808252601490820152731d1e08185b1c9958591e4818dbdb999a5c9b595960621b604082015260600190565b60208082526011908201527053686f756c642073656e642076616c756560781b604082015260600190565b6020808252601390820152721d1e08185b1c9958591e48195e1958dd5d1959606a1b604082015260600190565b60208082526010908201526f1d1e081b9bdd0818dbdb999a5c9b595960821b604082015260600190565b6020808252601f908201527f5265656e7472616e637947756172643a207265656e7472616e742063616c6c00604082015260600190565b6020808252601190820152700c6c2dcdcdee840caf0cac6eae8ca40e8f607b1b604082015260600190565b90815260200190565b6000838252604060208301526110576040830184610d24565b949350505050565b918252602082015260400190565b60009081526020902090565b6000821982111561108c5761108c6110e3565b500190565b6000828210156110a3576110a36110e3565b500390565b6002810460018216806110bc57607f821691505b602082108114156110dd57634e487b7160e01b600052602260045260246000fd5b50919050565b634e487b7160e01b600052601160045260246000fd5b634e487b7160e01b600052604160045260246000fdfea26469706673582212201044a979fcdcba3fdfb6f0f1181ec6c4903dc63c4bbabddedecbbe0ffd80836064736f6c63430008000033",
  "devdoc": {
    "kind": "dev",
    "methods": {
      "executeTransaction(uint256)": {
        "details": "We did not add onlySigner modifier here, because we want to allow any community member to execute transaction which had got at least minimum number of confirmations"
      },
      "submitTransaction(address,uint256,bytes)": {
        "details": "when buying is failed, agent should send loan again to TribeOne."
      }
    },
    "version": 1
  },
  "userdoc": {
    "kind": "user",
    "methods": {},
    "version": 1
  },
  "storageLayout": {
    "storage": [
      {
        "astId": 120,
        "contract": "contracts/MultiSigWallet.sol:MultiSigWallet",
        "label": "_status",
        "offset": 0,
        "slot": "0",
        "type": "t_uint256"
      },
      {
        "astId": 4920,
        "contract": "contracts/MultiSigWallet.sol:MultiSigWallet",
        "label": "signers",
        "offset": 0,
        "slot": "1",
        "type": "t_array(t_address)dyn_storage"
      },
      {
        "astId": 4924,
        "contract": "contracts/MultiSigWallet.sol:MultiSigWallet",
        "label": "isSigner",
        "offset": 0,
        "slot": "2",
        "type": "t_mapping(t_address,t_bool)"
      },
      {
        "astId": 4926,
        "contract": "contracts/MultiSigWallet.sol:MultiSigWallet",
        "label": "numConfirmationsRequired",
        "offset": 0,
        "slot": "3",
        "type": "t_uint256"
      },
      {
        "astId": 4943,
        "contract": "contracts/MultiSigWallet.sol:MultiSigWallet",
        "label": "isConfirmed",
        "offset": 0,
        "slot": "4",
        "type": "t_mapping(t_uint256,t_mapping(t_address,t_bool))"
      },
      {
        "astId": 4947,
        "contract": "contracts/MultiSigWallet.sol:MultiSigWallet",
        "label": "transactions",
        "offset": 0,
        "slot": "5",
        "type": "t_array(t_struct(Transaction)4937_storage)dyn_storage"
      }
    ],
    "types": {
      "t_address": {
        "encoding": "inplace",
        "label": "address",
        "numberOfBytes": "20"
      },
      "t_array(t_address)dyn_storage": {
        "base": "t_address",
        "encoding": "dynamic_array",
        "label": "address[]",
        "numberOfBytes": "32"
      },
      "t_array(t_struct(Transaction)4937_storage)dyn_storage": {
        "base": "t_struct(Transaction)4937_storage",
        "encoding": "dynamic_array",
        "label": "struct MultiSigWallet.Transaction[]",
        "numberOfBytes": "32"
      },
      "t_bool": {
        "encoding": "inplace",
        "label": "bool",
        "numberOfBytes": "1"
      },
      "t_bytes_storage": {
        "encoding": "bytes",
        "label": "bytes",
        "numberOfBytes": "32"
      },
      "t_mapping(t_address,t_bool)": {
        "encoding": "mapping",
        "key": "t_address",
        "label": "mapping(address => bool)",
        "numberOfBytes": "32",
        "value": "t_bool"
      },
      "t_mapping(t_uint256,t_mapping(t_address,t_bool))": {
        "encoding": "mapping",
        "key": "t_uint256",
        "label": "mapping(uint256 => mapping(address => bool))",
        "numberOfBytes": "32",
        "value": "t_mapping(t_address,t_bool)"
      },
      "t_struct(Transaction)4937_storage": {
        "encoding": "inplace",
        "label": "struct MultiSigWallet.Transaction",
        "members": [
          {
            "astId": 4928,
            "contract": "contracts/MultiSigWallet.sol:MultiSigWallet",
            "label": "to",
            "offset": 0,
            "slot": "0",
            "type": "t_address"
          },
          {
            "astId": 4930,
            "contract": "contracts/MultiSigWallet.sol:MultiSigWallet",
            "label": "value",
            "offset": 0,
            "slot": "1",
            "type": "t_uint256"
          },
          {
            "astId": 4932,
            "contract": "contracts/MultiSigWallet.sol:MultiSigWallet",
            "label": "data",
            "offset": 0,
            "slot": "2",
            "type": "t_bytes_storage"
          },
          {
            "astId": 4934,
            "contract": "contracts/MultiSigWallet.sol:MultiSigWallet",
            "label": "executed",
            "offset": 0,
            "slot": "3",
            "type": "t_bool"
          },
          {
            "astId": 4936,
            "contract": "contracts/MultiSigWallet.sol:MultiSigWallet",
            "label": "numConfirmations",
            "offset": 0,
            "slot": "4",
            "type": "t_uint256"
          }
        ],
        "numberOfBytes": "160"
      },
      "t_uint256": {
        "encoding": "inplace",
        "label": "uint256",
        "numberOfBytes": "32"
      }
    }
  }
}