{
  "address": "0xeaB917ADb2DD2988D4F62637AB1e6010601252dd",
  "abi": [
    {
      "inputs": [
        {
          "internalType": "address",
          "name": "_salesManager",
          "type": "address"
        },
        {
          "internalType": "address",
          "name": "_feeTo",
          "type": "address"
        },
        {
          "internalType": "address",
          "name": "_feeCurrency",
          "type": "address"
        },
        {
          "internalType": "address",
          "name": "_multiSigWallet",
          "type": "address"
        },
        {
          "internalType": "address",
          "name": "_assetManager",
          "type": "address"
        }
      ],
      "stateMutability": "nonpayable",
      "type": "constructor"
    },
    {
      "anonymous": false,
      "inputs": [
        {
          "indexed": true,
          "internalType": "uint256",
          "name": "_loanId",
          "type": "uint256"
        },
        {
          "indexed": false,
          "internalType": "address",
          "name": "_sender",
          "type": "address"
        },
        {
          "indexed": false,
          "internalType": "address",
          "name": "_currency",
          "type": "address"
        },
        {
          "indexed": false,
          "internalType": "uint256",
          "name": "_amount",
          "type": "uint256"
        }
      ],
      "name": "InstallmentPaid",
      "type": "event"
    },
    {
      "anonymous": false,
      "inputs": [
        {
          "indexed": true,
          "internalType": "uint256",
          "name": "_loanId",
          "type": "uint256"
        },
        {
          "indexed": true,
          "internalType": "address",
          "name": "_to",
          "type": "address"
        },
        {
          "indexed": false,
          "internalType": "address",
          "name": "_fundCurreny",
          "type": "address"
        },
        {
          "indexed": false,
          "internalType": "uint256",
          "name": "_fundAmount",
          "type": "uint256"
        }
      ],
      "name": "LoanApproved",
      "type": "event"
    },
    {
      "anonymous": false,
      "inputs": [
        {
          "indexed": true,
          "internalType": "uint256",
          "name": "_loanId",
          "type": "uint256"
        },
        {
          "indexed": false,
          "internalType": "address",
          "name": "_sender",
          "type": "address"
        }
      ],
      "name": "LoanCanceled",
      "type": "event"
    },
    {
      "anonymous": false,
      "inputs": [
        {
          "indexed": true,
          "internalType": "uint256",
          "name": "loanId",
          "type": "uint256"
        },
        {
          "indexed": true,
          "internalType": "address",
          "name": "owner",
          "type": "address"
        }
      ],
      "name": "LoanCreated",
      "type": "event"
    },
    {
      "anonymous": false,
      "inputs": [
        {
          "indexed": true,
          "internalType": "uint256",
          "name": "_loandId",
          "type": "uint256"
        }
      ],
      "name": "LoanDefaulted",
      "type": "event"
    },
    {
      "anonymous": false,
      "inputs": [
        {
          "indexed": true,
          "internalType": "uint256",
          "name": "_loanId",
          "type": "uint256"
        },
        {
          "indexed": false,
          "internalType": "address",
          "name": "_salesManager",
          "type": "address"
        }
      ],
      "name": "LoanLiquidation",
      "type": "event"
    },
    {
      "anonymous": false,
      "inputs": [
        {
          "indexed": true,
          "internalType": "uint256",
          "name": "_loanId",
          "type": "uint256"
        },
        {
          "indexed": false,
          "internalType": "uint256",
          "name": "_soldAmount",
          "type": "uint256"
        },
        {
          "indexed": false,
          "internalType": "uint256",
          "name": "_finalDebt",
          "type": "uint256"
        }
      ],
      "name": "LoanPostLiquidation",
      "type": "event"
    },
    {
      "anonymous": false,
      "inputs": [
        {
          "indexed": true,
          "internalType": "uint256",
          "name": "_loanId",
          "type": "uint256"
        },
        {
          "indexed": true,
          "internalType": "address",
          "name": "_sender",
          "type": "address"
        },
        {
          "indexed": false,
          "internalType": "bool",
          "name": "_accepted",
          "type": "bool"
        }
      ],
      "name": "NFTRelayed",
      "type": "event"
    },
    {
      "anonymous": false,
      "inputs": [
        {
          "indexed": true,
          "internalType": "uint256",
          "name": "_loanId",
          "type": "uint256"
        },
        {
          "indexed": false,
          "internalType": "address",
          "name": "_to",
          "type": "address"
        }
      ],
      "name": "NFTWithdrew",
      "type": "event"
    },
    {
      "anonymous": false,
      "inputs": [
        {
          "indexed": true,
          "internalType": "address",
          "name": "previousOwner",
          "type": "address"
        },
        {
          "indexed": true,
          "internalType": "address",
          "name": "newOwner",
          "type": "address"
        }
      ],
      "name": "OwnershipTransferred",
      "type": "event"
    },
    {
      "anonymous": false,
      "inputs": [
        {
          "indexed": true,
          "internalType": "uint256",
          "name": "_loanId",
          "type": "uint256"
        },
        {
          "indexed": false,
          "internalType": "uint256",
          "name": "_amount",
          "type": "uint256"
        }
      ],
      "name": "RestWithdrew",
      "type": "event"
    },
    {
      "anonymous": false,
      "inputs": [
        {
          "indexed": false,
          "internalType": "address",
          "name": "_feeTo",
          "type": "address"
        },
        {
          "indexed": false,
          "internalType": "uint256",
          "name": "_lateFee",
          "type": "uint256"
        },
        {
          "indexed": false,
          "internalType": "uint256",
          "name": "_penaltyFee",
          "type": "uint256"
        },
        {
          "indexed": false,
          "internalType": "address",
          "name": "_salesManager",
          "type": "address"
        },
        {
          "indexed": false,
          "internalType": "address",
          "name": "_assetManager",
          "type": "address"
        }
      ],
      "name": "SettingsUpdate",
      "type": "event"
    },
    {
      "inputs": [],
      "name": "GRACE_PERIOD",
      "outputs": [
        {
          "internalType": "uint256",
          "name": "",
          "type": "uint256"
        }
      ],
      "stateMutability": "view",
      "type": "function"
    },
    {
      "inputs": [],
      "name": "MAX_SLIPPAGE",
      "outputs": [
        {
          "internalType": "uint256",
          "name": "",
          "type": "uint256"
        }
      ],
      "stateMutability": "view",
      "type": "function"
    },
    {
      "inputs": [],
      "name": "TENOR_UNIT",
      "outputs": [
        {
          "internalType": "uint256",
          "name": "",
          "type": "uint256"
        }
      ],
      "stateMutability": "view",
      "type": "function"
    },
    {
      "inputs": [
        {
          "internalType": "uint256",
          "name": "_loanId",
          "type": "uint256"
        },
        {
          "internalType": "uint256",
          "name": "_amount",
          "type": "uint256"
        },
        {
          "internalType": "address",
          "name": "_agent",
          "type": "address"
        }
      ],
      "name": "approveLoan",
      "outputs": [],
      "stateMutability": "nonpayable",
      "type": "function"
    },
    {
      "inputs": [],
      "name": "assetManager",
      "outputs": [
        {
          "internalType": "address",
          "name": "",
          "type": "address"
        }
      ],
      "stateMutability": "view",
      "type": "function"
    },
    {
      "inputs": [
        {
          "internalType": "uint256",
          "name": "_loanId",
          "type": "uint256"
        }
      ],
      "name": "cancelLoan",
      "outputs": [],
      "stateMutability": "nonpayable",
      "type": "function"
    },
    {
      "inputs": [
        {
          "internalType": "uint16[]",
          "name": "_loanRules",
          "type": "uint16[]"
        },
        {
          "internalType": "address[]",
          "name": "_currencies",
          "type": "address[]"
        },
        {
          "internalType": "address[]",
          "name": "nftAddressArray",
          "type": "address[]"
        },
        {
          "internalType": "uint256[]",
          "name": "_amounts",
          "type": "uint256[]"
        },
        {
          "internalType": "uint256[]",
          "name": "nftTokenIdArray",
          "type": "uint256[]"
        },
        {
          "internalType": "enum TribeOneHelper.TokenType[]",
          "name": "nftTokenTypeArray",
          "type": "uint8[]"
        }
      ],
      "name": "createLoan",
      "outputs": [],
      "stateMutability": "payable",
      "type": "function"
    },
    {
      "inputs": [
        {
          "internalType": "uint256",
          "name": "_loanId",
          "type": "uint256"
        }
      ],
      "name": "expectedLastPaymentTime",
      "outputs": [
        {
          "internalType": "uint256",
          "name": "",
          "type": "uint256"
        }
      ],
      "stateMutability": "view",
      "type": "function"
    },
    {
      "inputs": [],
      "name": "feeCurrency",
      "outputs": [
        {
          "internalType": "address",
          "name": "",
          "type": "address"
        }
      ],
      "stateMutability": "view",
      "type": "function"
    },
    {
      "inputs": [],
      "name": "feeTo",
      "outputs": [
        {
          "internalType": "address",
          "name": "",
          "type": "address"
        }
      ],
      "stateMutability": "view",
      "type": "function"
    },
    {
      "inputs": [
        {
          "internalType": "uint256",
          "name": "_loanId",
          "type": "uint256"
        }
      ],
      "name": "finalDebtAndPenalty",
      "outputs": [
        {
          "internalType": "uint256",
          "name": "",
          "type": "uint256"
        }
      ],
      "stateMutability": "view",
      "type": "function"
    },
    {
      "inputs": [
        {
          "internalType": "uint256",
          "name": "_loanId",
          "type": "uint256"
        }
      ],
      "name": "getBackFund",
      "outputs": [],
      "stateMutability": "payable",
      "type": "function"
    },
    {
      "inputs": [
        {
          "internalType": "uint256",
          "name": "_loanId",
          "type": "uint256"
        }
      ],
      "name": "getCollateralAsset",
      "outputs": [
        {
          "internalType": "address",
          "name": "_token",
          "type": "address"
        },
        {
          "internalType": "uint256",
          "name": "_amount",
          "type": "uint256"
        }
      ],
      "stateMutability": "view",
      "type": "function"
    },
    {
      "inputs": [
        {
          "internalType": "uint256",
          "name": "_loanId",
          "type": "uint256"
        }
      ],
      "name": "getLoanAsset",
      "outputs": [
        {
          "internalType": "address",
          "name": "_token",
          "type": "address"
        },
        {
          "internalType": "uint256",
          "name": "_amount",
          "type": "uint256"
        }
      ],
      "stateMutability": "view",
      "type": "function"
    },
    {
      "inputs": [
        {
          "internalType": "uint256",
          "name": "_loanId",
          "type": "uint256"
        }
      ],
      "name": "getLoanNFTCount",
      "outputs": [
        {
          "internalType": "uint256",
          "name": "",
          "type": "uint256"
        }
      ],
      "stateMutability": "view",
      "type": "function"
    },
    {
      "inputs": [
        {
          "internalType": "uint256",
          "name": "_loanId",
          "type": "uint256"
        },
        {
          "internalType": "uint256",
          "name": "_nftItemId",
          "type": "uint256"
        }
      ],
      "name": "getLoanNFTItem",
      "outputs": [
        {
          "internalType": "address",
          "name": "_nftAddress",
          "type": "address"
        },
        {
          "internalType": "uint256",
          "name": "_tokenId",
          "type": "uint256"
        }
      ],
      "stateMutability": "view",
      "type": "function"
    },
    {
      "inputs": [
        {
          "internalType": "uint256",
          "name": "_loanId",
          "type": "uint256"
        }
      ],
      "name": "getLoanRules",
      "outputs": [
        {
          "internalType": "uint16",
          "name": "tenor",
          "type": "uint16"
        },
        {
          "internalType": "uint16",
          "name": "LTV",
          "type": "uint16"
        },
        {
          "internalType": "uint16",
          "name": "interest",
          "type": "uint16"
        }
      ],
      "stateMutability": "view",
      "type": "function"
    },
    {
      "inputs": [],
      "name": "lateFee",
      "outputs": [
        {
          "internalType": "uint256",
          "name": "",
          "type": "uint256"
        }
      ],
      "stateMutability": "view",
      "type": "function"
    },
    {
      "inputs": [],
      "name": "loanIds",
      "outputs": [
        {
          "internalType": "uint256",
          "name": "_value",
          "type": "uint256"
        }
      ],
      "stateMutability": "view",
      "type": "function"
    },
    {
      "inputs": [
        {
          "internalType": "uint256",
          "name": "",
          "type": "uint256"
        }
      ],
      "name": "loans",
      "outputs": [
        {
          "internalType": "uint256",
          "name": "fundAmount",
          "type": "uint256"
        },
        {
          "internalType": "uint256",
          "name": "paidAmount",
          "type": "uint256"
        },
        {
          "internalType": "uint256",
          "name": "loanStart",
          "type": "uint256"
        },
        {
          "internalType": "uint256",
          "name": "postTime",
          "type": "uint256"
        },
        {
          "internalType": "uint256",
          "name": "restAmount",
          "type": "uint256"
        },
        {
          "internalType": "address",
          "name": "borrower",
          "type": "address"
        },
        {
          "internalType": "uint8",
          "name": "nrOfPenalty",
          "type": "uint8"
        },
        {
          "internalType": "uint8",
          "name": "passedTenors",
          "type": "uint8"
        },
        {
          "components": [
            {
              "internalType": "uint256",
              "name": "amount",
              "type": "uint256"
            },
            {
              "internalType": "address",
              "name": "currency",
              "type": "address"
            }
          ],
          "internalType": "struct TribeOne.Asset",
          "name": "loanAsset",
          "type": "tuple"
        },
        {
          "components": [
            {
              "internalType": "uint256",
              "name": "amount",
              "type": "uint256"
            },
            {
              "internalType": "address",
              "name": "currency",
              "type": "address"
            }
          ],
          "internalType": "struct TribeOne.Asset",
          "name": "collateralAsset",
          "type": "tuple"
        },
        {
          "internalType": "enum TribeOne.Status",
          "name": "status",
          "type": "uint8"
        },
        {
          "components": [
            {
              "internalType": "uint16",
              "name": "tenor",
              "type": "uint16"
            },
            {
              "internalType": "uint16",
              "name": "LTV",
              "type": "uint16"
            },
            {
              "internalType": "uint16",
              "name": "interest",
              "type": "uint16"
            }
          ],
          "internalType": "struct TribeOne.LoanRules",
          "name": "loanRules",
          "type": "tuple"
        }
      ],
      "stateMutability": "view",
      "type": "function"
    },
    {
      "inputs": [
        {
          "internalType": "uint256[]",
          "name": "_loanIds",
          "type": "uint256[]"
        },
        {
          "internalType": "address",
          "name": "_currency",
          "type": "address"
        }
      ],
      "name": "lockRestAmount",
      "outputs": [],
      "stateMutability": "nonpayable",
      "type": "function"
    },
    {
      "inputs": [
        {
          "internalType": "address",
          "name": "",
          "type": "address"
        },
        {
          "internalType": "address",
          "name": "",
          "type": "address"
        },
        {
          "internalType": "uint256[]",
          "name": "",
          "type": "uint256[]"
        },
        {
          "internalType": "uint256[]",
          "name": "",
          "type": "uint256[]"
        },
        {
          "internalType": "bytes",
          "name": "",
          "type": "bytes"
        }
      ],
      "name": "onERC1155BatchReceived",
      "outputs": [
        {
          "internalType": "bytes4",
          "name": "",
          "type": "bytes4"
        }
      ],
      "stateMutability": "nonpayable",
      "type": "function"
    },
    {
      "inputs": [
        {
          "internalType": "address",
          "name": "",
          "type": "address"
        },
        {
          "internalType": "address",
          "name": "",
          "type": "address"
        },
        {
          "internalType": "uint256",
          "name": "",
          "type": "uint256"
        },
        {
          "internalType": "uint256",
          "name": "",
          "type": "uint256"
        },
        {
          "internalType": "bytes",
          "name": "",
          "type": "bytes"
        }
      ],
      "name": "onERC1155Received",
      "outputs": [
        {
          "internalType": "bytes4",
          "name": "",
          "type": "bytes4"
        }
      ],
      "stateMutability": "nonpayable",
      "type": "function"
    },
    {
      "inputs": [
        {
          "internalType": "address",
          "name": "",
          "type": "address"
        },
        {
          "internalType": "address",
          "name": "",
          "type": "address"
        },
        {
          "internalType": "uint256",
          "name": "",
          "type": "uint256"
        },
        {
          "internalType": "bytes",
          "name": "",
          "type": "bytes"
        }
      ],
      "name": "onERC721Received",
      "outputs": [
        {
          "internalType": "bytes4",
          "name": "",
          "type": "bytes4"
        }
      ],
      "stateMutability": "nonpayable",
      "type": "function"
    },
    {
      "inputs": [],
      "name": "owner",
      "outputs": [
        {
          "internalType": "address",
          "name": "",
          "type": "address"
        }
      ],
      "stateMutability": "view",
      "type": "function"
    },
    {
      "inputs": [
        {
          "internalType": "uint256",
          "name": "_loanId",
          "type": "uint256"
        },
        {
          "internalType": "uint256",
          "name": "_amount",
          "type": "uint256"
        }
      ],
      "name": "payInstallment",
      "outputs": [],
      "stateMutability": "payable",
      "type": "function"
    },
    {
      "inputs": [],
      "name": "penaltyFee",
      "outputs": [
        {
          "internalType": "uint256",
          "name": "",
          "type": "uint256"
        }
      ],
      "stateMutability": "view",
      "type": "function"
    },
    {
      "inputs": [
        {
          "internalType": "uint256",
          "name": "_loanId",
          "type": "uint256"
        },
        {
          "internalType": "uint256",
          "name": "_amount",
          "type": "uint256"
        }
      ],
      "name": "postLiquidation",
      "outputs": [],
      "stateMutability": "payable",
      "type": "function"
    },
    {
      "inputs": [
        {
          "internalType": "uint256",
          "name": "_loanId",
          "type": "uint256"
        },
        {
          "internalType": "address",
          "name": "_agent",
          "type": "address"
        },
        {
          "internalType": "bool",
          "name": "_accepted",
          "type": "bool"
        }
      ],
      "name": "relayNFT",
      "outputs": [],
      "stateMutability": "payable",
      "type": "function"
    },
    {
      "inputs": [],
      "name": "renounceOwnership",
      "outputs": [],
      "stateMutability": "nonpayable",
      "type": "function"
    },
    {
      "inputs": [],
      "name": "salesManager",
      "outputs": [
        {
          "internalType": "address",
          "name": "",
          "type": "address"
        }
      ],
      "stateMutability": "view",
      "type": "function"
    },
    {
      "inputs": [
        {
          "internalType": "uint256",
          "name": "_loanId",
          "type": "uint256"
        }
      ],
      "name": "setLoanDefaulted",
      "outputs": [],
      "stateMutability": "nonpayable",
      "type": "function"
    },
    {
      "inputs": [
        {
          "internalType": "uint256",
          "name": "_loanId",
          "type": "uint256"
        }
      ],
      "name": "setLoanLiquidation",
      "outputs": [],
      "stateMutability": "nonpayable",
      "type": "function"
    },
    {
      "inputs": [
        {
          "internalType": "address",
          "name": "_feeTo",
          "type": "address"
        },
        {
          "internalType": "uint256",
          "name": "_lateFee",
          "type": "uint256"
        },
        {
          "internalType": "uint256",
          "name": "_penaltyFee",
          "type": "uint256"
        },
        {
          "internalType": "address",
          "name": "_salesManager",
          "type": "address"
        },
        {
          "internalType": "address",
          "name": "_assetManager",
          "type": "address"
        }
      ],
      "name": "setSettings",
      "outputs": [],
      "stateMutability": "nonpayable",
      "type": "function"
    },
    {
      "inputs": [
        {
          "internalType": "bytes4",
          "name": "interfaceId",
          "type": "bytes4"
        }
      ],
      "name": "supportsInterface",
      "outputs": [
        {
          "internalType": "bool",
          "name": "",
          "type": "bool"
        }
      ],
      "stateMutability": "view",
      "type": "function"
    },
    {
      "inputs": [
        {
          "internalType": "uint256",
          "name": "_loanId",
          "type": "uint256"
        }
      ],
      "name": "totalDebt",
      "outputs": [
        {
          "internalType": "uint256",
          "name": "",
          "type": "uint256"
        }
      ],
      "stateMutability": "view",
      "type": "function"
    },
    {
      "inputs": [
        {
          "internalType": "address",
          "name": "newOwner",
          "type": "address"
        }
      ],
      "name": "transferOwnership",
      "outputs": [],
      "stateMutability": "nonpayable",
      "type": "function"
    },
    {
      "inputs": [
        {
          "internalType": "uint256",
          "name": "_loanId",
          "type": "uint256"
        }
      ],
      "name": "withdrawNFT",
      "outputs": [],
      "stateMutability": "nonpayable",
      "type": "function"
    },
    {
      "stateMutability": "payable",
      "type": "receive"
    }
  ],
  "transactionHash": "0x0b0d7b96b2b60c75b985501b03e2e7b739d8b2bdf86780c8048c745878b5805d",
  "args": [
    "0x6C641CE6A7216F12d28692f9d8b2BDcdE812eD2b",
    "0x6C641CE6A7216F12d28692f9d8b2BDcdE812eD2b",
    "0xd8f50554055Be0276fa29F40Fb3227FE96B5D6c2",
    "0x75415C1a0fCE7A5E9D0cB3c6f359A9F2E2D812e4",
    "0x997036a4DC288C7d0C7C570e61dCdb54F0a3d6B2"
  ],
  "solcInputHash": "2acf1af45a8b7a0d0137be188f55b5d9",
  "bytecode": "0x60a06040523480156200001157600080fd5b506040516200451a3803806200451a83398101604081905262000034916200023e565b60006200004062000155565b600080546001600160a01b0319166001600160a01b038316908117825560405192935091600080516020620044fa833981519152908290a350600180556001600160a01b038516158015906200009e57506001600160a01b03841615155b8015620000b357506001600160a01b03831615155b8015620000c857506001600160a01b03821615155b620000f05760405162461bcd60e51b8152600401620000e79062000328565b60405180910390fd5b600480546001600160a01b038088166001600160a01b0319928316179092556005805484841690831617905560068054928716929091169190911790556001600160601b0319606084901b166080526200014a8262000159565b50505050506200035f565b3390565b6200016362000155565b6001600160a01b03166200017662000212565b6001600160a01b0316146200019f5760405162461bcd60e51b8152600401620000e790620002f3565b6001600160a01b038116620001c85760405162461bcd60e51b8152600401620000e790620002ad565b600080546040516001600160a01b0380851693921691600080516020620044fa83398151915291a3600080546001600160a01b0319166001600160a01b0392909216919091179055565b6000546001600160a01b031690565b80516001600160a01b03811681146200023957600080fd5b919050565b600080600080600060a0868803121562000256578081fd5b620002618662000221565b9450620002716020870162000221565b9350620002816040870162000221565b9250620002916060870162000221565b9150620002a16080870162000221565b90509295509295909350565b60208082526026908201527f4f776e61626c653a206e6577206f776e657220697320746865207a65726f206160408201526564647265737360d01b606082015260800190565b6020808252818101527f4f776e61626c653a2063616c6c6572206973206e6f7420746865206f776e6572604082015260600190565b60208082526016908201527f54726962654f6e653a205a45524f206164647265737300000000000000000000604082015260600190565b60805160601c6141606200039a60003960008181610a4901528181610b06015281816117d60152818161262201526126ee01526141606000f3fe6080604052600436106102295760003560e01c80639695858f11610123578063c1a287e2116100ab578063e1ec3c681161006f578063e1ec3c6814610604578063f23a6e611461063c578063f2fde38b1461065c578063f87c59cc1461067c578063f97595181461068f57610230565b8063c1a287e21461057a578063c22f46101461058f578063c5b6599f146105af578063c8f87ccb146105c4578063df9eb938146105e457610230565b8063b112ea6e116100f2578063b112ea6e146104e7578063bc197c8114610507578063bdbfa3de14610527578063bec5740614610547578063bf79b7421461055a57610230565b80639695858f1461048a578063a3ada2d7146104aa578063af8747c2146104bf578063b0aa6808146104d257610230565b80633dc10ad4116101b1578063715018a611610175578063715018a61461040b578063724732a8146104205780637dc830d8146104405780638da5cb5b1461046057806394217ad11461047557610230565b80633dc10ad41461038b5780633f4de62f146103a057806346402a79146103b55780634e248cda146103c85780636028ce9f146103dd57610230565b8063150b7a02116101f8578063150b7a02146102cf5780631614b251146102fc57806321d0393a1461030f578063265e9a4c1461032f5780633a7caf201461035c57610230565b8063017e7e581461023557806301ffc9a714610260578063023245d71461028d5780630309db4a146102af57610230565b3661023057005b600080fd5b34801561024157600080fd5b5061024a6106a4565b60405161025791906135bf565b60405180910390f35b34801561026c57600080fd5b5061028061027b36600461343e565b6106b3565b6040516102579190613687565b34801561029957600080fd5b506102ad6102a8366004613488565b6106e0565b005b3480156102bb57600080fd5b506102ad6102ca366004613488565b610721565b3480156102db57600080fd5b506102ef6102ea3660046131a2565b610953565b6040516102579190613692565b6102ad61030a366004613488565b610963565b34801561031b57600080fd5b506102ad61032a366004613500565b610baf565b34801561033b57600080fd5b5061034f61034a366004613488565b610e36565b6040516102579190613df9565b34801561036857600080fd5b5061037c610377366004613488565b610e9a565b60405161025793929190613ddb565b34801561039757600080fd5b5061034f610eca565b3480156103ac57600080fd5b5061034f610ed0565b6102ad6103c33660046134df565b610ed6565b3480156103d457600080fd5b5061034f611207565b3480156103e957600080fd5b506103fd6103f83660046134df565b61120e565b60405161025792919061363c565b34801561041757600080fd5b506102ad6112a2565b34801561042c57600080fd5b506102ad61043b3660046133d0565b61132b565b34801561044c57600080fd5b5061034f61045b366004613488565b611461565b34801561046c57600080fd5b5061024a6114a1565b34801561048157600080fd5b5061024a6114b0565b34801561049657600080fd5b506103fd6104a5366004613488565b6114bf565b3480156104b657600080fd5b5061024a6114e6565b6102ad6104cd3660046134a0565b6114f5565b3480156104de57600080fd5b5061024a6117d4565b3480156104f357600080fd5b506103fd610502366004613488565b6117f8565b34801561051357600080fd5b506102ef6105223660046130fc565b61181f565b34801561053357600080fd5b506102ad610542366004613488565b611830565b6102ad6105553660046134df565b61193a565b34801561056657600080fd5b506102ad61057536600461326b565b611af5565b34801561058657600080fd5b5061034f611bff565b34801561059b57600080fd5b5061034f6105aa366004613488565b611c06565b3480156105bb57600080fd5b5061034f611c50565b3480156105d057600080fd5b506102ad6105df366004613488565b611c56565b3480156105f057600080fd5b5061034f6105ff366004613488565b611d47565b34801561061057600080fd5b5061062461061f366004613488565b611d5c565b6040516102579c9b9a99989796959493929190613e10565b34801561064857600080fd5b506102ef610657366004613208565b611e2b565b34801561066857600080fd5b506102ad6106773660046130e2565b611e3c565b6102ad61068a3660046132c1565b611efc565b34801561069b57600080fd5b5061034f61254a565b6006546001600160a01b031681565b60006001600160e01b03198216630271189760e51b14806106d857506106d882612550565b90505b919050565b6002600154141561070c5760405162461bcd60e51b815260040161070390613cca565b60405180910390fd5b600260015561071a81612569565b5060018055565b600260015414156107445760405162461bcd60e51b815260040161070390613cca565b600260018190556000828152602091909152604090206008600a82015460ff16600c81111561078357634e487b7160e01b600052602160045260246000fd5b146107a05760405162461bcd60e51b815260040161070390613b77565b42620151806107ae84611461565b6107b89190613f28565b106107d55760405162461bcd60e51b815260040161070390613d50565b600a8101805460ff19166009179055600c81015460005b818110156108dc57600083600c01828154811061081957634e487b7160e01b600052603260045260246000fd5b6000918252602082200154600d860180546001600160a01b039092169350908490811061085657634e487b7160e01b600052603260045260246000fd5b906000526020600020015490506108c78230600460009054906101000a90046001600160a01b031688600e0187815481106108a157634e487b7160e01b600052603260045260246000fd5b90600052602060002090602091828204019190069054906101000a900460ff1685612826565b505080806108d4906140d2565b9150506107ec565b50600982015460088301546006546001600160a01b03928316926109039184911683612922565b60045460405186917fff6f4651f4fd73446c5a7a4c5eaa2b05686ad05806a08db92d320fd0e4df77ef91610940916001600160a01b0316906135bf565b60405180910390a2505060018055505050565b630a85bd0160e11b949350505050565b600081815260026020526040902060058101546001600160a01b031661098761294f565b6001600160a01b0316146109ad5760405162461bcd60e51b815260040161070390613a5d565b600a8082015460ff16600c8111156109d557634e487b7160e01b600052602160045260246000fd5b146109f25760405162461bcd60e51b815260040161070390613b77565b42620151808260030154610a069190613f28565b11610a235760405162461bcd60e51b815260040161070390613a30565b600481015480610a455760405162461bcd60e51b81526004016107039061379c565b60007f00000000000000000000000000000000000000000000000000000000000000006001600160a01b031663313ce5676040518163ffffffff1660e01b815260040160206040518083038186803b158015610aa057600080fd5b505afa158015610ab4573d6000803e3d6000fd5b505050506040513d601f19601f82011682018060405250810190610ad8919061352b565b610ae390600a613fcb565b600754610af0919061409c565b600a8401805460ff1916600b1790559050610b347f0000000000000000000000000000000000000000000000000000000000000000610b2d61294f565b3084612953565b60078301546001600160a01b031680610b5d57610b58610b5261294f565b84612a43565b610b70565b610b708130610b6a61294f565b86612953565b847f54c34e2467de11ba056e6efc24455400a417eee8270ce874c1b548f0974ed59484604051610ba09190613df9565b60405180910390a25050505050565b610bb761294f565b6001600160a01b0316610bc86114a1565b6001600160a01b031614610bee5760405162461bcd60e51b815260040161070390613b0b565b60026001541415610c115760405162461bcd60e51b815260040161070390613cca565b600260018181556000858152602092909252604090912090600a82015460ff16600c811115610c5057634e487b7160e01b600052602160045260246000fd5b14610c6d5760405162461bcd60e51b815260040161070390613974565b6001600160a01b038216610c935760405162461bcd60e51b815260040161070390613c1c565b8054600b82015462010000900461ffff166000610cb383836101f4612ad0565b905080861115610cd55760405162461bcd60e51b815260040161070390613bae565b600a8401805460ff19166002179055600784015484546001600160a01b0390911690610d0190886140bb565b60068601556001600160a01b038116610d7d57600554604051636f59503f60e01b81526001600160a01b0390911690636f59503f90610d469089908b9060040161363c565b600060405180830381600087803b158015610d6057600080fd5b505af1158015610d74573d6000803e3d6000fd5b50505050610de4565b6005546040516324b28b1560e11b81526001600160a01b0390911690634965162a90610db190899085908c906004016135d3565b600060405180830381600087803b158015610dcb57600080fd5b505af1158015610ddf573d6000803e3d6000fd5b505050505b856001600160a01b0316887f5a2849283d692c6535b240a67d3be009f99e4c8c66a13e5238ecfe2ecd9e8f65838a604051610e2092919061363c565b60405180910390a3505060018055505050505050565b6000818152600260205260408120600181015482610e5385611c06565b905060006103e86008548560060160000154610e6f919061409c565b610e799190613f65565b905082610e868284613f28565b610e9091906140bb565b9695505050505050565b6000908152600260205260409020600b015461ffff80821692620100008304821692640100000000900490911690565b60085481565b60075481565b60026001541415610ef95760405162461bcd60e51b815260040161070390613cca565b600260018190556000838152602091909152604090206003600a82015460ff16600c811115610f3857634e487b7160e01b600052602160045260246000fd5b1480610f6a57506008600a82015460ff16600c811115610f6857634e487b7160e01b600052602160045260246000fd5b145b610f865760405162461bcd60e51b815260040161070390613b77565b6000610f9184612b18565b60078301549091506001600160a01b031680610fab573493505b60018301546000610fbb87611c06565b600b86015490915060009061ffff16610fd4868461409c565b610fde9190613f65565b905080610feb8885613f28565b10156110095760405162461bcd60e51b815260040161070390613be5565b61101288612b74565b506000816110208885613f28565b111561103e57816110318885613f28565b61103b91906140bb565b90505b61104881886140bb565b96506001600160a01b03841661108a57801561106f5761106f61106961294f565b82612a43565b600554611085906001600160a01b031688612a43565b6110a8565b6110a88461109661294f565b6005546001600160a01b03168a612953565b868660010160008282546110bc9190613f28565b9091555050600b860154600187015460009184916110de9161ffff169061409c565b6110e89190613f65565b6005880154909150600160a81b900460ff1681111561111c5760058701805460ff60a81b1916600160a81b60ff8416021790555b6008600a88015460ff16600c81111561114557634e487b7160e01b600052602160045260246000fd5b141561115b57600a8701805460ff191660031790555b826111668986613f28565b14156111bc57600a8701805460ff1916600417905561118361294f565b60058801546001600160a01b0390811691161480156111ae57506005870154600160a01b900460ff16155b156111bc576111bc89612569565b887f337875b31ca148911f20ebb44d810f124d810dd362ca3065c8591e09b3fb73f533878b6040516111f0939291906135d3565b60405180910390a250506001805550505050505050565b6202a30081565b6000828152600260205260408120600c0180548291908490811061124257634e487b7160e01b600052603260045260246000fd5b600091825260208083209091015486835260029091526040909120600d0180546001600160a01b039092169350908490811061128e57634e487b7160e01b600052603260045260246000fd5b906000526020600020015490509250929050565b6112aa61294f565b6001600160a01b03166112bb6114a1565b6001600160a01b0316146112e15760405162461bcd60e51b815260040161070390613b0b565b600080546040516001600160a01b03909116907f8be0079c531659141344cd1fd0a4f28419497f9722a3daafe3b4186f6b6457e0908390a3600080546001600160a01b0319169055565b6002600154141561134e5760405162461bcd60e51b815260040161070390613cca565b6002600155816000805b8281101561143d57600086868381811061138257634e487b7160e01b600052603260045260246000fd5b602090810292909201356000818152600290935260409092206007810154929350916001600160a01b03888116911614905080156113e55750600a8082015460ff16600c8111156113e357634e487b7160e01b600052602160045260246000fd5b145b80156114025750426201518082600301546114009190613f28565b115b156114285760048101546114169085613f28565b600a8201805460ff1916600c17905593505b50508080611435906140d2565b915050611358565b506006546114569084906001600160a01b031683612922565b505060018055505050565b6000818152600260205260408120600581015461148b90600160a81b900460ff166202a30061409c565b816002015461149a9190613f28565b9392505050565b6000546001600160a01b031690565b6005546001600160a01b031681565b600090815260026020526040902060078101546006909101546001600160a01b0390911691565b6004546001600160a01b031681565b6114fd61294f565b6001600160a01b031661150e6114a1565b6001600160a01b0316146115345760405162461bcd60e51b815260040161070390613b0b565b600260015414156115575760405162461bcd60e51b815260040161070390613cca565b60026001819055600084815260208290526040902090600a82015460ff16600c81111561159457634e487b7160e01b600052602160045260246000fd5b146115b15760405162461bcd60e51b8152600401610703906136ea565b6001600160a01b0383166115d75760405162461bcd60e51b815260040161070390613c1c565b81156116d757600c81015460005b818110156116bb576116a983600c01828154811061161357634e487b7160e01b600052603260045260246000fd5b9060005260206000200160009054906101000a90046001600160a01b0316863086600e01858154811061165657634e487b7160e01b600052603260045260246000fd5b90600052602060002090602091828204019190069054906101000a900460ff1687600d01868154811061169957634e487b7160e01b600052603260045260246000fd5b9060005260206000200154612826565b806116b3816140d2565b9150506115e5565b5050600a8101805460ff19166003179055426002820155611788565b600a8101805460ff191660069081179091556007820154908201546001600160a01b03909116908161175957803410156117235760405162461bcd60e51b815260040161070390613b40565b8034111561173e5761173e8561173983346140bb565b612a43565b600554611754906001600160a01b031682612a43565b611773565b60055461177390839087906001600160a01b031684612953565b61177c86612c7f565b61178586612cb4565b50505b826001600160a01b0316847f7aaf993782070c73bb2987e6cd8e60d71f407e727a8c44101a341680260ff500846040516117c29190613687565b60405180910390a35050600180555050565b7f000000000000000000000000000000000000000000000000000000000000000081565b600090815260026020526040902060098101546008909101546001600160a01b0390911691565b63bc197c8160e01b95945050505050565b600260015414156118535760405162461bcd60e51b815260040161070390613cca565b6002600181905560008281526020919091526040902061187161294f565b60058201546001600160a01b0390811691161480156118b657506001600a82015460ff16600c8111156118b457634e487b7160e01b600052602160045260246000fd5b145b6118d25760405162461bcd60e51b815260040161070390613c4c565b600a8101805460ff191660071790556118ea82612c7f565b6118f382612cb4565b817fd7c51777aa8fac36ec01ee3c9f7e62a08837a6f6074d0d02d94ce108b3ae931161191d61294f565b60405161192a91906135bf565b60405180910390a2505060018055565b6002600154141561195d5760405162461bcd60e51b815260040161070390613cca565b60026001556004546001600160a01b031661197661294f565b6001600160a01b03161461199c5760405162461bcd60e51b815260040161070390613c4c565b60008281526002602052604090206009600a82015460ff16600c8111156119d357634e487b7160e01b600052602160045260246000fd5b146119f05760405162461bcd60e51b815260040161070390613a89565b60078101546001600160a01b03168015611a0a5782611a0c565b345b92506000611a1985610e36565b90506001600160a01b038216611a5657808411611a365783611a38565b805b600654909150611a51906001600160a01b031682612a43565b611a93565b611a6982611a6261294f565b3087612953565b808411611a765783611a78565b805b600654909150611a939083906001600160a01b031683612ce6565b600a838101805460ff1916909117905580841115611abb57611ab581856140bb565b60048401555b42600384015560405185907fb05ced90bd7d793d66e9da2b341f252ee2aeb662ca3680be0d5e73bab4f8da67906109409087908590613e02565b611afd61294f565b6001600160a01b0316611b0e6114a1565b6001600160a01b031614611b345760405162461bcd60e51b815260040161070390613b0b565b6001600160a01b03821615801590611b5457506001600160a01b03851615155b611b705760405162461bcd60e51b815260040161070390613c1c565b600680546001600160a01b038088166001600160a01b031992831617909255600786905560088590556004805485841690831617905560058054848416921691909117908190556040517f7229d407fca4e1dddfa1d0522b2690427047eb8ab00d60ced49f011bcc39a14192611bf0928992899289928992911690613655565b60405180910390a15050505050565b6201518081565b6000818152600260205260408120600b81015461271090611c3390640100000000900461ffff1682613f02565b6006830154611c469161ffff169061409c565b61149a9190613f65565b60035481565b60026001541415611c795760405162461bcd60e51b815260040161070390613cca565b600260018190556000828152602091909152604090206003600a82015460ff16600c811115611cb857634e487b7160e01b600052602160045260246000fd5b14611cd55760405162461bcd60e51b815260040161070390613b77565b42611cdf83611461565b10611cfc5760405162461bcd60e51b815260040161070390613d50565b611d0582612b74565b600a8101805460ff1916600817905560405182907f0789b7097e8066538cfaa1132488b132e14ba5f0c938c8b7aaf8cf40356aab0b90600090a2505060018055565b6000908152600260205260409020600c015490565b60026020818152600092835260409283902080546001820154938201546003830154600484015460058501548851808a018a526006870154815260078701546001600160a01b03908116828a01528a51808c018c526008890154815260098901548216818b0152600a8901548c51606081018e52600b909a015461ffff8082168c5262010000820481169c8c019c909c526401000000009004909a169b89019b909b52959994979396929582169460ff600160a01b8404811695600160a81b909404811694929391929116908c565b63f23a6e6160e01b95945050505050565b611e4461294f565b6001600160a01b0316611e556114a1565b6001600160a01b031614611e7b5760405162461bcd60e51b815260040161070390613b0b565b6001600160a01b038116611ea15760405162461bcd60e51b815260040161070390613721565b600080546040516001600160a01b03808516939216917f8be0079c531659141344cd1fd0a4f28419497f9722a3daafe3b4186f6b6457e091a3600080546001600160a01b0319166001600160a01b0392909216919091179055565b60038a148015611f0c5750600284145b611f285760405162461bcd60e51b8152600401610703906138f0565b60008b8b6000818110611f4b57634e487b7160e01b600052603260045260246000fd5b9050602002016020810190611f609190613466565b905060008c8c6001818110611f8557634e487b7160e01b600052603260045260246000fd5b9050602002016020810190611f9a9190613466565b905060008d8d6002818110611fbf57634e487b7160e01b600052603260045260246000fd5b9050602002016020810190611fd49190613466565b905060008e8e6001818110611ff957634e487b7160e01b600052603260045260246000fd5b905060200201602081019061200e9190613466565b61ffff161161202f5760405162461bcd60e51b815260040161070390613767565b60008e8e600081811061205257634e487b7160e01b600052603260045260246000fd5b90506020020160208101906120679190613466565b61ffff16116120885760405162461bcd60e51b815260040161070390613d01565b886120a55760405162461bcd60e51b8152600401610703906138aa565b60008c8c60018181106120c857634e487b7160e01b600052603260045260246000fd5b90506020020160208101906120dd91906130e2565b905060008d8d600081811061210257634e487b7160e01b600052603260045260246000fd5b905060200201602081019061211791906130e2565b60055460405163cc16574160e01b81529192506001600160a01b03169063cc165741906121489084906004016135bf565b602060405180830381600087803b15801561216257600080fd5b505af1158015612176573d6000803e3d6000fd5b505050506040513d601f19601f8201168201806040525081019061219a9190613422565b6121b65760405162461bcd60e51b81526004016107039061382e565b6005546040516308409d7760e01b81526001600160a01b03909116906308409d77906121e69085906004016135bf565b602060405180830381600087803b15801561220057600080fd5b505af1158015612214573d6000803e3d6000fd5b505050506040513d601f19601f820116820180604052508101906122389190613422565b6122545760405162461bcd60e51b815260040161070390613ac0565b816001600160a01b0316816001600160a01b031614156122865760405162461bcd60e51b815260040161070390613a00565b8a871480156122955750855187145b6122b15760405162461bcd60e51b8152600401610703906137d1565b6122bb6003612dcc565b60006122c76003612dd5565b905060006001600160a01b03831615612307578b8b60008181106122fb57634e487b7160e01b600052603260045260246000fd5b90506020020135612309565b345b905060006001600160a01b03851615612349578c8c600181811061233d57634e487b7160e01b600052603260045260246000fd5b9050602002013561234b565b345b90506001600160a01b0384161561236f5761236f8461236861294f565b3085612953565b6001600160a01b0385161561238a5761238a85610b2d61294f565b8e8e60026000868152602001908152602001600020600c0191906123af929190612dd9565b506123b861294f565b60008481526002602081815260408084206005810180546001600160a01b039788166001600160a01b031991821617909155825180840184528681528b88168186019081528b88528686529051600684015551600783018054918916918316919091179055825180840184528881528c88168186019081528b8852868652905160088401555160098301805491909816911617909555805160608101825261ffff808f1682528d81168285019081528d8216938301938452958a9052939092529051600b850180549451925184166401000000000265ffff0000000019938516620100000263ffff0000199390951661ffff19909616959095179190911692909217169190911790556124cf90600d018c8c612e3c565b506000838152600260209081526040909120838155600a8101805460ff191660011790558a5161250792600e909201918c0190612e77565b50604051339084907f1e6e02c9589612d091b6d88e3f0a4af8853df1573895d33dc5bd10f27bfbc59790600090a350505050505050505050505050505050505050565b6101f481565b6001600160e01b031981166301ffc9a760e01b14919050565b60008181526002602052604090206004600a82015460ff16600c8111156125a057634e487b7160e01b600052602160045260246000fd5b146125bd5760405162461bcd60e51b8152600401610703906139ab565b60006125c761294f565b60058301549091506001600160a01b038083169116146125f95760405162461bcd60e51b815260040161070390613c4c565b600a8201805460ff1916600590811790915582015460ff600160a01b90910416156127215760007f00000000000000000000000000000000000000000000000000000000000000006001600160a01b031663313ce5676040518163ffffffff1660e01b815260040160206040518083038186803b15801561267957600080fd5b505afa15801561268d573d6000803e3d6000fd5b505050506040513d601f19601f820116820180604052508101906126b1919061352b565b6126bc90600a613fcb565b60075460058501546126d89190600160a01b900460ff1661409c565b6126e2919061409c565b60065490915061271f907f00000000000000000000000000000000000000000000000000000000000000009084906001600160a01b031684612953565b505b600c82015460005b818110156127de57600084600c01828154811061275657634e487b7160e01b600052603260045260246000fd5b6000918252602082200154600d870180546001600160a01b039092169350908490811061279357634e487b7160e01b600052603260045260246000fd5b906000526020600020015490506127c982308789600e0187815481106108a157634e487b7160e01b600052603260045260246000fd5b505080806127d6906140d2565b915050612729565b506127e884612c7f565b837f4459793bb7ed080476f037ed5016eb5366299d029547cdb92e50d4b18cf9d4928360405161281891906135bf565b60405180910390a250505050565b600082600181111561284857634e487b7160e01b600052602160045260246000fd5b14156128b557604051632142170760e11b81526001600160a01b038616906342842e0e9061287e908790879086906004016135d3565b600060405180830381600087803b15801561289857600080fd5b505af11580156128ac573d6000803e3d6000fd5b5050505061291b565b604051637921219560e11b81526001600160a01b0386169063f242432a906128e8908790879086906001906004016135f7565b600060405180830381600087803b15801561290257600080fd5b505af1158015612916573d6000803e3d6000fd5b505050505b5050505050565b6001600160a01b03831661293f5761293a8282612a43565b61294a565b61294a838383612ce6565b505050565b3390565b600080856001600160a01b03166323b872dd86868660405160240161297a939291906135d3565b6040516020818303038152906040529060e01b6020820180516001600160e01b0383818316178352505050506040516129b39190613586565b6000604051808303816000865af19150503d80600081146129f0576040519150601f19603f3d011682016040523d82523d6000602084013e6129f5565b606091505b5091509150818015612a1f575080511580612a1f575080806020019051810190612a1f9190613422565b612a3b5760405162461bcd60e51b815260040161070390613c79565b505050505050565b604080516000808252602082019092526001600160a01b038416908390604051612a6d9190613586565b60006040518083038185875af1925050503d8060008114612aaa576040519150601f19603f3d011682016040523d82523d6000602084013e612aaf565b606091505b505090508061294a5760405162461bcd60e51b815260040161070390613d87565b600082612aef5760405162461bcd60e51b8152600401610703906136a7565b82612afc83612710613f28565b612b06908661409c565b612b109190613f65565b949350505050565b600081815260026020819052604082200154816202a300612b3983426140bb565b612b439190613f65565b6000858152600260205260409020600b015490915061ffff16808211612b695781612b6b565b805b95945050505050565b60008181526002602052604090206003600a82015460ff16600c811115612bab57634e487b7160e01b600052602160045260246000fd5b1480612bdd57506008600a82015460ff16600c811115612bdb57634e487b7160e01b600052602160045260246000fd5b145b612bf95760405162461bcd60e51b815260040161070390613873565b6000612c0483612b18565b6005830154909150600160a81b900460ff1680821115612c795760058301805460ff60a81b1916600160a81b60ff851602179055612c4281836140bb565b600584018054601490612c60908490600160a01b900460ff16613f40565b92506101000a81548160ff021916908360ff1602179055505b50505050565b60008181526002602052604090206009810154600882015460058301546001600160a01b03928316921661291b838284612922565b60008181526002602052604090206007810154815460058301546001600160a01b03928316921661291b838284612922565b600080846001600160a01b031663a9059cbb8585604051602401612d0b92919061363c565b6040516020818303038152906040529060e01b6020820180516001600160e01b038381831617835250505050604051612d449190613586565b6000604051808303816000865af19150503d8060008114612d81576040519150601f19603f3d011682016040523d82523d6000602084013e612d86565b606091505b5091509150818015612db0575080511580612db0575080806020019051810190612db09190613422565b61291b5760405162461bcd60e51b815260040161070390613927565b80546001019055565b5490565b828054828255906000526020600020908101928215612e2c579160200282015b82811115612e2c5781546001600160a01b0319166001600160a01b03843516178255602090920191600190910190612df9565b50612e38929150612f30565b5090565b828054828255906000526020600020908101928215612e2c579160200282015b82811115612e2c578235825591602001919060010190612e5c565b82805482825590600052602060002090601f01602090048101928215612e2c5791602002820160005b83821115612efa57835183826101000a81548160ff02191690836001811115612ed957634e487b7160e01b600052602160045260246000fd5b02179055509260200192600101602081600001049283019260010302612ea0565b8015612f275782816101000a81549060ff0219169055600101602081600001049283019260010302612efa565b5050612e389291505b5b80821115612e385760008155600101612f31565b80356001600160a01b03811681146106db57600080fd5b60008083601f840112612f6d578182fd5b50813567ffffffffffffffff811115612f84578182fd5b6020830191508360208083028501011115612f9e57600080fd5b9250929050565b600082601f830112612fb5578081fd5b81356020612fca612fc583613ede565b613eb4565b8281528181019085830183850287018401881015612fe6578586fd5b855b8581101561301057813560028110612ffe578788fd5b84529284019290840190600101612fe8565b5090979650505050505050565b600082601f83011261302d578081fd5b8135602061303d612fc583613ede565b8281528181019085830183850287018401881015613059578586fd5b855b858110156130105781358452928401929084019060010161305b565b600082601f830112613087578081fd5b813567ffffffffffffffff8111156130a1576130a1614103565b6130b4601f8201601f1916602001613eb4565b8181528460208386010111156130c8578283fd5b816020850160208301379081016020019190915292915050565b6000602082840312156130f3578081fd5b61149a82612f45565b600080600080600060a08688031215613113578081fd5b61311c86612f45565b945061312a60208701612f45565b9350604086013567ffffffffffffffff80821115613146578283fd5b61315289838a0161301d565b94506060880135915080821115613167578283fd5b61317389838a0161301d565b93506080880135915080821115613188578283fd5b5061319588828901613077565b9150509295509295909350565b600080600080608085870312156131b7578384fd5b6131c085612f45565b93506131ce60208601612f45565b925060408501359150606085013567ffffffffffffffff8111156131f0578182fd5b6131fc87828801613077565b91505092959194509250565b600080600080600060a0868803121561321f578081fd5b61322886612f45565b945061323660208701612f45565b93506040860135925060608601359150608086013567ffffffffffffffff81111561325f578182fd5b61319588828901613077565b600080600080600060a08688031215613282578081fd5b61328b86612f45565b945060208601359350604086013592506132a760608701612f45565b91506132b560808701612f45565b90509295509295909350565b600080600080600080600080600080600060c08c8e0312156132e1578889fd5b67ffffffffffffffff808d3511156132f757898afd5b6133048e8e358f01612f5c565b909c509a5060208d013581101561331957898afd5b6133298e60208f01358f01612f5c565b909a50985060408d013581101561333e578687fd5b61334e8e60408f01358f01612f5c565b909850965060608d0135811015613363578586fd5b6133738e60608f01358f01612f5c565b909650945060808d0135811015613388578384fd5b6133988e60808f01358f01612f5c565b909450925060a08d01358110156133ad578182fd5b506133be8d60a08e01358e01612fa5565b90509295989b509295989b9093969950565b6000806000604084860312156133e4578081fd5b833567ffffffffffffffff8111156133fa578182fd5b61340686828701612f5c565b9094509250613419905060208501612f45565b90509250925092565b600060208284031215613433578081fd5b815161149a81614119565b60006020828403121561344f578081fd5b81356001600160e01b03198116811461149a578182fd5b600060208284031215613477578081fd5b813561ffff8116811461149a578182fd5b600060208284031215613499578081fd5b5035919050565b6000806000606084860312156134b4578081fd5b833592506134c460208501612f45565b915060408401356134d481614119565b809150509250925092565b600080604083850312156134f1578182fd5b50508035926020909101359150565b600080600060608486031215613514578081fd5b833592506020840135915061341960408501612f45565b60006020828403121561353c578081fd5b815160ff8116811461149a578182fd5b805182526020908101516001600160a01b0316910152565b805161ffff908116835260208083015182169084015260409182015116910152565b60008251815b818110156135a6576020818601810151858301520161358c565b818111156135b45782828501525b509190910192915050565b6001600160a01b0391909116815260200190565b6001600160a01b039384168152919092166020820152604081019190915260600190565b6001600160a01b0394851681529290931660208301526040820152606081019190915260a060808201819052600490820152630307830360e41b60c082015260e00190565b6001600160a01b03929092168252602082015260400190565b6001600160a01b0395861681526020810194909452604084019290925283166060830152909116608082015260a00190565b901515815260200190565b6001600160e01b031991909116815260200190565b60208082526023908201527f54726962654f6e6548656c7065723a204c54562073686f756c64206e6f74206260408201526206520360ec1b606082015260800190565b6020808252601b908201527f54726962654f6e653a204e6f7420617070726f766564206c6f616e0000000000604082015260600190565b60208082526026908201527f4f776e61626c653a206e6577206f776e657220697320746865207a65726f206160408201526564647265737360d01b606082015260800190565b6020808252818101527f54726962654f6e653a204c54562073686f756c64206e6f74206265205a45524f604082015260600190565b6020808252818101527f54726962654f6e653a204e6f20616d6f756e7420746f2067697665206261636b604082015260600190565b6020808252603d908201527f54726962654f6e653a204e46542070726f766964656420696e666f726d61746960408201527f6f6e7320617265206d697373696e67206f7220696e636f6d706c657465000000606082015260800190565b60208082526025908201527f54726962654f6e653a204c6f616e206173736574206973206e6f7420617661696040820152646c61626c6560d81b606082015260800190565b6020808252601a908201527f54726962654f6e653a204e6f742061637469766564206c6f616e000000000000604082015260600190565b60208082526026908201527f54726962654f6e653a204c6f616e206d75737420686176652061746c65617374604082015265080c4813919560d21b606082015260800190565b6020808252601b908201527f54726962654f6e653a20496e76616c696420706172616d657465720000000000604082015260600190565b6020808252602d908201527f54726962654f6e6548656c7065723a3a736166655472616e736665723a20747260408201526c185b9cd9995c8819985a5b1959609a1b606082015260800190565b60208082526019908201527f54726962654f6e653a20496e76616c6964207265717565737400000000000000604082015260600190565b60208082526035908201527f54726962654f6e653a20496e76616c696420737461747573202d20796f752068604082015274617665207374696c6c206465627420746f2070617960581b606082015260800190565b60208082526016908201527554726962654f6e653a2057726f6e672061737365747360501b604082015260600190565b6020808252601390820152722a3934b132a7b7329d102a34b6b29037bb32b960691b604082015260600190565b6020808252601290820152712a3934b127b7329d102337b93134b23232b760711b604082015260600190565b60208082526018908201527f54726962654f6e653a20696e76616c6964207374617475730000000000000000604082015260600190565b6020808252602b908201527f54726962654f6e653a20436f6c6c61746572616c206173736574206973206e6f60408201526a7420617661696c61626c6560a81b606082015260800190565b6020808252818101527f4f776e61626c653a2063616c6c6572206973206e6f7420746865206f776e6572604082015260600190565b6020808252601f908201527f54726962654f6e653a204c657373207468616e206c6f616e20616d6f756e7400604082015260600190565b60208082526018908201527f54726962654f6e653a20496e76616c6964207374617475730000000000000000604082015260600190565b60208082526018908201527f54726962654f6e653a20496e76616c696420616d6f756e740000000000000000604082015260600190565b6020808252601d908201527f54726962654f6e653a20496e73756666696369656e7420416d6f756e74000000604082015260600190565b60208082526016908201527554726962654f6e653a205a45524f206164647265737360501b604082015260600190565b6020808252601390820152722a3934b132a7b7329d102337b93134b23232b760691b604082015260600190565b60208082526031908201527f54726962654f6e6548656c7065723a3a7472616e7366657246726f6d3a207472604082015270185b9cd9995c919c9bdb4819985a5b1959607a1b606082015260800190565b6020808252601f908201527f5265656e7472616e637947756172643a207265656e7472616e742063616c6c00604082015260600190565b6020808252602f908201527f54726962654f6e653a204c6f616e206d7573742068617665206174206c65617360408201526e1d080c481a5b9cdd185b1b1b595b9d608a1b606082015260800190565b6020808252601f908201527f54726962654f6e653a204e6f74206f7665726475656420646174652079657400604082015260600190565b60208082526034908201527f54726962654f6e6548656c7065723a3a736166655472616e736665724554483a60408201527308115512081d1c985b9cd9995c8819985a5b195960621b606082015260800190565b61ffff93841681529183166020830152909116604082015260600190565b90815260200190565b918252602082015260400190565b8c8152602081018c9052604081018b9052606081018a9052608081018990526001600160a01b03881660a082015260ff87811660c0830152861660e08201526102008101613e6261010083018761354c565b613e7061014083018661354c565b600d8410613e8e57634e487b7160e01b600052602160045260246000fd5b83610180830152613ea36101a0830184613564565b9d9c50505050505050505050505050565b60405181810167ffffffffffffffff81118282101715613ed657613ed6614103565b604052919050565b600067ffffffffffffffff821115613ef857613ef8614103565b5060209081020190565b600061ffff808316818516808303821115613f1f57613f1f6140ed565b01949350505050565b60008219821115613f3b57613f3b6140ed565b500190565b600060ff821660ff84168060ff03821115613f5d57613f5d6140ed565b019392505050565b600082613f8057634e487b7160e01b81526012600452602481fd5b500490565b80825b6001808611613f975750613fc2565b818704821115613fa957613fa96140ed565b80861615613fb657918102915b9490941c938002613f88565b94509492505050565b600061149a60001960ff851684600082613fe75750600161149a565b81613ff45750600061149a565b816001811461400a576002811461401457614041565b600191505061149a565b60ff841115614025576140256140ed565b6001841b91508482111561403b5761403b6140ed565b5061149a565b5060208310610133831016604e8410600b8410161715614074575081810a8381111561406f5761406f6140ed565b61149a565b6140818484846001613f85565b808604821115614093576140936140ed565b02949350505050565b60008160001904831182151516156140b6576140b66140ed565b500290565b6000828210156140cd576140cd6140ed565b500390565b60006000198214156140e6576140e66140ed565b5060010190565b634e487b7160e01b600052601160045260246000fd5b634e487b7160e01b600052604160045260246000fd5b801515811461412757600080fd5b5056fea2646970667358221220cd9f4e330d3a7dec3ae37145849c7776f9da3c5c9b6a685f3e09954c760eb4e064736f6c634300080000338be0079c531659141344cd1fd0a4f28419497f9722a3daafe3b4186f6b6457e0",
  "devdoc": {
    "kind": "dev",
    "methods": {
      "getBackFund(uint256)": {
        "details": "User can get back the rest money through this function, but he should pay late fee."
      },
      "lockRestAmount(uint256[],address)": {
        "details": "if user does not want to get back rest of money due to some reasons, such as gas fee... we will transfer rest money to our fee address (after 14 days notification). For saving gas fee, we will transfer once for the one kind of token."
      },
      "onERC721Received(address,address,uint256,bytes)": {
        "details": "See {IERC721Receiver-onERC721Received}. Always returns `IERC721Receiver.onERC721Received.selector`."
      },
      "owner()": {
        "details": "Returns the address of the current owner."
      },
      "postLiquidation(uint256,uint256)": {
        "details": "after sold NFT set in market place, and give that fund back to TribeOne Only sales manager can do this"
      },
      "relayNFT(uint256,address,bool)": {
        "details": "_loanId: loanId, _accepted: order to Partner is succeeded or not loan will be back to TribeOne if accepted is false"
      },
      "renounceOwnership()": {
        "details": "Leaves the contract without owner. It will not be possible to call `onlyOwner` functions anymore. Can only be called by the current owner. NOTE: Renouncing ownership will leave the contract without an owner, thereby removing any functionality that is only available to the owner."
      },
      "supportsInterface(bytes4)": {
        "details": "See {IERC165-supportsInterface}."
      },
      "transferOwnership(address)": {
        "details": "Transfers ownership of the contract to a new account (`newOwner`). Can only be called by the current owner."
      }
    },
    "version": 1
  },
  "userdoc": {
    "kind": "user",
    "methods": {},
    "version": 1
  },
  "storageLayout": {
    "storage": [
      {
        "astId": 7,
        "contract": "contracts/TribeOne.sol:TribeOne",
        "label": "_owner",
        "offset": 0,
        "slot": "0",
        "type": "t_address"
      },
      {
        "astId": 120,
        "contract": "contracts/TribeOne.sol:TribeOne",
        "label": "_status",
        "offset": 0,
        "slot": "1",
        "type": "t_uint256"
      },
      {
        "astId": 5419,
        "contract": "contracts/TribeOne.sol:TribeOne",
        "label": "loans",
        "offset": 0,
        "slot": "2",
        "type": "t_mapping(t_uint256,t_struct(Loan)5414_storage)"
      },
      {
        "astId": 5422,
        "contract": "contracts/TribeOne.sol:TribeOne",
        "label": "loanIds",
        "offset": 0,
        "slot": "3",
        "type": "t_struct(Counter)3755_storage"
      },
      {
        "astId": 5433,
        "contract": "contracts/TribeOne.sol:TribeOne",
        "label": "salesManager",
        "offset": 0,
        "slot": "4",
        "type": "t_address"
      },
      {
        "astId": 5435,
        "contract": "contracts/TribeOne.sol:TribeOne",
        "label": "assetManager",
        "offset": 0,
        "slot": "5",
        "type": "t_address"
      },
      {
        "astId": 5437,
        "contract": "contracts/TribeOne.sol:TribeOne",
        "label": "feeTo",
        "offset": 0,
        "slot": "6",
        "type": "t_address"
      },
      {
        "astId": 5441,
        "contract": "contracts/TribeOne.sol:TribeOne",
        "label": "lateFee",
        "offset": 0,
        "slot": "7",
        "type": "t_uint256"
      },
      {
        "astId": 5443,
        "contract": "contracts/TribeOne.sol:TribeOne",
        "label": "penaltyFee",
        "offset": 0,
        "slot": "8",
        "type": "t_uint256"
      }
    ],
    "types": {
      "t_address": {
        "encoding": "inplace",
        "label": "address",
        "numberOfBytes": "20"
      },
      "t_array(t_address)dyn_storage": {
        "base": "t_address",
        "encoding": "dynamic_array",
        "label": "address[]",
        "numberOfBytes": "32"
      },
      "t_array(t_enum(TokenType)7695)dyn_storage": {
        "base": "t_enum(TokenType)7695",
        "encoding": "dynamic_array",
        "label": "enum TribeOneHelper.TokenType[]",
        "numberOfBytes": "32"
      },
      "t_array(t_uint256)dyn_storage": {
        "base": "t_uint256",
        "encoding": "dynamic_array",
        "label": "uint256[]",
        "numberOfBytes": "32"
      },
      "t_enum(Status)5363": {
        "encoding": "inplace",
        "label": "enum TribeOne.Status",
        "numberOfBytes": "1"
      },
      "t_enum(TokenType)7695": {
        "encoding": "inplace",
        "label": "enum TribeOneHelper.TokenType",
        "numberOfBytes": "1"
      },
      "t_mapping(t_uint256,t_struct(Loan)5414_storage)": {
        "encoding": "mapping",
        "key": "t_uint256",
        "label": "mapping(uint256 => struct TribeOne.Loan)",
        "numberOfBytes": "32",
        "value": "t_struct(Loan)5414_storage"
      },
      "t_struct(Asset)5368_storage": {
        "encoding": "inplace",
        "label": "struct TribeOne.Asset",
        "members": [
          {
            "astId": 5365,
            "contract": "contracts/TribeOne.sol:TribeOne",
            "label": "amount",
            "offset": 0,
            "slot": "0",
            "type": "t_uint256"
          },
          {
            "astId": 5367,
            "contract": "contracts/TribeOne.sol:TribeOne",
            "label": "currency",
            "offset": 0,
            "slot": "1",
            "type": "t_address"
          }
        ],
        "numberOfBytes": "64"
      },
      "t_struct(Counter)3755_storage": {
        "encoding": "inplace",
        "label": "struct Counters.Counter",
        "members": [
          {
            "astId": 3754,
            "contract": "contracts/TribeOne.sol:TribeOne",
            "label": "_value",
            "offset": 0,
            "slot": "0",
            "type": "t_uint256"
          }
        ],
        "numberOfBytes": "32"
      },
      "t_struct(Loan)5414_storage": {
        "encoding": "inplace",
        "label": "struct TribeOne.Loan",
        "members": [
          {
            "astId": 5377,
            "contract": "contracts/TribeOne.sol:TribeOne",
            "label": "fundAmount",
            "offset": 0,
            "slot": "0",
            "type": "t_uint256"
          },
          {
            "astId": 5379,
            "contract": "contracts/TribeOne.sol:TribeOne",
            "label": "paidAmount",
            "offset": 0,
            "slot": "1",
            "type": "t_uint256"
          },
          {
            "astId": 5381,
            "contract": "contracts/TribeOne.sol:TribeOne",
            "label": "loanStart",
            "offset": 0,
            "slot": "2",
            "type": "t_uint256"
          },
          {
            "astId": 5383,
            "contract": "contracts/TribeOne.sol:TribeOne",
            "label": "postTime",
            "offset": 0,
            "slot": "3",
            "type": "t_uint256"
          },
          {
            "astId": 5385,
            "contract": "contracts/TribeOne.sol:TribeOne",
            "label": "restAmount",
            "offset": 0,
            "slot": "4",
            "type": "t_uint256"
          },
          {
            "astId": 5387,
            "contract": "contracts/TribeOne.sol:TribeOne",
            "label": "borrower",
            "offset": 0,
            "slot": "5",
            "type": "t_address"
          },
          {
            "astId": 5389,
            "contract": "contracts/TribeOne.sol:TribeOne",
            "label": "nrOfPenalty",
            "offset": 20,
            "slot": "5",
            "type": "t_uint8"
          },
          {
            "astId": 5391,
            "contract": "contracts/TribeOne.sol:TribeOne",
            "label": "passedTenors",
            "offset": 21,
            "slot": "5",
            "type": "t_uint8"
          },
          {
            "astId": 5394,
            "contract": "contracts/TribeOne.sol:TribeOne",
            "label": "loanAsset",
            "offset": 0,
            "slot": "6",
            "type": "t_struct(Asset)5368_storage"
          },
          {
            "astId": 5397,
            "contract": "contracts/TribeOne.sol:TribeOne",
            "label": "collateralAsset",
            "offset": 0,
            "slot": "8",
            "type": "t_struct(Asset)5368_storage"
          },
          {
            "astId": 5400,
            "contract": "contracts/TribeOne.sol:TribeOne",
            "label": "status",
            "offset": 0,
            "slot": "10",
            "type": "t_enum(Status)5363"
          },
          {
            "astId": 5403,
            "contract": "contracts/TribeOne.sol:TribeOne",
            "label": "loanRules",
            "offset": 0,
            "slot": "11",
            "type": "t_struct(LoanRules)5375_storage"
          },
          {
            "astId": 5406,
            "contract": "contracts/TribeOne.sol:TribeOne",
            "label": "nftAddressArray",
            "offset": 0,
            "slot": "12",
            "type": "t_array(t_address)dyn_storage"
          },
          {
            "astId": 5409,
            "contract": "contracts/TribeOne.sol:TribeOne",
            "label": "nftTokenIdArray",
            "offset": 0,
            "slot": "13",
            "type": "t_array(t_uint256)dyn_storage"
          },
          {
            "astId": 5413,
            "contract": "contracts/TribeOne.sol:TribeOne",
            "label": "nftTokenTypeArray",
            "offset": 0,
            "slot": "14",
            "type": "t_array(t_enum(TokenType)7695)dyn_storage"
          }
        ],
        "numberOfBytes": "480"
      },
      "t_struct(LoanRules)5375_storage": {
        "encoding": "inplace",
        "label": "struct TribeOne.LoanRules",
        "members": [
          {
            "astId": 5370,
            "contract": "contracts/TribeOne.sol:TribeOne",
            "label": "tenor",
            "offset": 0,
            "slot": "0",
            "type": "t_uint16"
          },
          {
            "astId": 5372,
            "contract": "contracts/TribeOne.sol:TribeOne",
            "label": "LTV",
            "offset": 2,
            "slot": "0",
            "type": "t_uint16"
          },
          {
            "astId": 5374,
            "contract": "contracts/TribeOne.sol:TribeOne",
            "label": "interest",
            "offset": 4,
            "slot": "0",
            "type": "t_uint16"
          }
        ],
        "numberOfBytes": "32"
      },
      "t_uint16": {
        "encoding": "inplace",
        "label": "uint16",
        "numberOfBytes": "2"
      },
      "t_uint256": {
        "encoding": "inplace",
        "label": "uint256",
        "numberOfBytes": "32"
      },
      "t_uint8": {
        "encoding": "inplace",
        "label": "uint8",
        "numberOfBytes": "1"
      }
    }
  }
}