{
  "address": "0x328232C816Da5a2bb3CbF92F13AB133955D92CE8",
  "abi": [
    {
      "inputs": [
        {
          "internalType": "address",
          "name": "_salesManager",
          "type": "address"
        },
        {
          "internalType": "address",
          "name": "_feeTo",
          "type": "address"
        },
        {
          "internalType": "address",
          "name": "_feeCurrency",
          "type": "address"
        },
        {
          "internalType": "address",
          "name": "_multiSigWallet",
          "type": "address"
        },
        {
          "internalType": "address",
          "name": "_assetManager",
          "type": "address"
        }
      ],
      "stateMutability": "nonpayable",
      "type": "constructor"
    },
    {
      "anonymous": false,
      "inputs": [
        {
          "indexed": true,
          "internalType": "uint256",
          "name": "_loanId",
          "type": "uint256"
        },
        {
          "indexed": false,
          "internalType": "address",
          "name": "_sender",
          "type": "address"
        },
        {
          "indexed": false,
          "internalType": "address",
          "name": "_currency",
          "type": "address"
        },
        {
          "indexed": false,
          "internalType": "uint256",
          "name": "_amount",
          "type": "uint256"
        }
      ],
      "name": "InstallmentPaid",
      "type": "event"
    },
    {
      "anonymous": false,
      "inputs": [
        {
          "indexed": true,
          "internalType": "uint256",
          "name": "_loanId",
          "type": "uint256"
        },
        {
          "indexed": true,
          "internalType": "address",
          "name": "_to",
          "type": "address"
        },
        {
          "indexed": false,
          "internalType": "address",
          "name": "_fundCurreny",
          "type": "address"
        },
        {
          "indexed": false,
          "internalType": "uint256",
          "name": "_fundAmount",
          "type": "uint256"
        }
      ],
      "name": "LoanApproved",
      "type": "event"
    },
    {
      "anonymous": false,
      "inputs": [
        {
          "indexed": true,
          "internalType": "uint256",
          "name": "_loanId",
          "type": "uint256"
        },
        {
          "indexed": false,
          "internalType": "address",
          "name": "_sender",
          "type": "address"
        }
      ],
      "name": "LoanCanceled",
      "type": "event"
    },
    {
      "anonymous": false,
      "inputs": [
        {
          "indexed": true,
          "internalType": "uint256",
          "name": "loanId",
          "type": "uint256"
        },
        {
          "indexed": true,
          "internalType": "address",
          "name": "owner",
          "type": "address"
        }
      ],
      "name": "LoanCreated",
      "type": "event"
    },
    {
      "anonymous": false,
      "inputs": [
        {
          "indexed": true,
          "internalType": "uint256",
          "name": "_loandId",
          "type": "uint256"
        }
      ],
      "name": "LoanDefaulted",
      "type": "event"
    },
    {
      "anonymous": false,
      "inputs": [
        {
          "indexed": true,
          "internalType": "uint256",
          "name": "_loanId",
          "type": "uint256"
        },
        {
          "indexed": false,
          "internalType": "address",
          "name": "_salesManager",
          "type": "address"
        }
      ],
      "name": "LoanLiquidation",
      "type": "event"
    },
    {
      "anonymous": false,
      "inputs": [
        {
          "indexed": true,
          "internalType": "uint256",
          "name": "_loanId",
          "type": "uint256"
        },
        {
          "indexed": false,
          "internalType": "uint256",
          "name": "_soldAmount",
          "type": "uint256"
        },
        {
          "indexed": false,
          "internalType": "uint256",
          "name": "_finalDebt",
          "type": "uint256"
        }
      ],
      "name": "LoanPostLiquidation",
      "type": "event"
    },
    {
      "anonymous": false,
      "inputs": [
        {
          "indexed": true,
          "internalType": "uint256",
          "name": "_loanId",
          "type": "uint256"
        },
        {
          "indexed": true,
          "internalType": "address",
          "name": "_sender",
          "type": "address"
        },
        {
          "indexed": false,
          "internalType": "bool",
          "name": "_accepted",
          "type": "bool"
        }
      ],
      "name": "NFTRelayed",
      "type": "event"
    },
    {
      "anonymous": false,
      "inputs": [
        {
          "indexed": true,
          "internalType": "uint256",
          "name": "_loanId",
          "type": "uint256"
        },
        {
          "indexed": false,
          "internalType": "address",
          "name": "_to",
          "type": "address"
        }
      ],
      "name": "NFTWithdrew",
      "type": "event"
    },
    {
      "anonymous": false,
      "inputs": [
        {
          "indexed": true,
          "internalType": "address",
          "name": "previousOwner",
          "type": "address"
        },
        {
          "indexed": true,
          "internalType": "address",
          "name": "newOwner",
          "type": "address"
        }
      ],
      "name": "OwnershipTransferred",
      "type": "event"
    },
    {
      "anonymous": false,
      "inputs": [
        {
          "indexed": true,
          "internalType": "uint256",
          "name": "_loanId",
          "type": "uint256"
        },
        {
          "indexed": false,
          "internalType": "uint256",
          "name": "_amount",
          "type": "uint256"
        }
      ],
      "name": "RestWithdrew",
      "type": "event"
    },
    {
      "anonymous": false,
      "inputs": [
        {
          "indexed": false,
          "internalType": "address",
          "name": "_feeTo",
          "type": "address"
        },
        {
          "indexed": false,
          "internalType": "uint256",
          "name": "_lateFee",
          "type": "uint256"
        },
        {
          "indexed": false,
          "internalType": "uint256",
          "name": "_penaltyFee",
          "type": "uint256"
        },
        {
          "indexed": false,
          "internalType": "address",
          "name": "_salesManager",
          "type": "address"
        },
        {
          "indexed": false,
          "internalType": "address",
          "name": "_assetManager",
          "type": "address"
        }
      ],
      "name": "SettingsUpdate",
      "type": "event"
    },
    {
      "inputs": [],
      "name": "GRACE_PERIOD",
      "outputs": [
        {
          "internalType": "uint256",
          "name": "",
          "type": "uint256"
        }
      ],
      "stateMutability": "view",
      "type": "function"
    },
    {
      "inputs": [],
      "name": "MAX_SLIPPAGE",
      "outputs": [
        {
          "internalType": "uint256",
          "name": "",
          "type": "uint256"
        }
      ],
      "stateMutability": "view",
      "type": "function"
    },
    {
      "inputs": [],
      "name": "TENOR_UNIT",
      "outputs": [
        {
          "internalType": "uint256",
          "name": "",
          "type": "uint256"
        }
      ],
      "stateMutability": "view",
      "type": "function"
    },
    {
      "inputs": [
        {
          "internalType": "uint256",
          "name": "_loanId",
          "type": "uint256"
        },
        {
          "internalType": "uint256",
          "name": "_amount",
          "type": "uint256"
        },
        {
          "internalType": "address",
          "name": "_agent",
          "type": "address"
        }
      ],
      "name": "approveLoan",
      "outputs": [],
      "stateMutability": "nonpayable",
      "type": "function"
    },
    {
      "inputs": [],
      "name": "assetManager",
      "outputs": [
        {
          "internalType": "address",
          "name": "",
          "type": "address"
        }
      ],
      "stateMutability": "view",
      "type": "function"
    },
    {
      "inputs": [
        {
          "internalType": "uint256",
          "name": "_loanId",
          "type": "uint256"
        }
      ],
      "name": "cancelLoan",
      "outputs": [],
      "stateMutability": "nonpayable",
      "type": "function"
    },
    {
      "inputs": [
        {
          "internalType": "uint16[]",
          "name": "_loanRules",
          "type": "uint16[]"
        },
        {
          "internalType": "address[]",
          "name": "_currencies",
          "type": "address[]"
        },
        {
          "internalType": "address[]",
          "name": "nftAddressArray",
          "type": "address[]"
        },
        {
          "internalType": "uint256[]",
          "name": "_amounts",
          "type": "uint256[]"
        },
        {
          "internalType": "uint256[]",
          "name": "nftTokenIdArray",
          "type": "uint256[]"
        },
        {
          "internalType": "enum TribeOneHelper.TokenType[]",
          "name": "nftTokenTypeArray",
          "type": "uint8[]"
        }
      ],
      "name": "createLoan",
      "outputs": [],
      "stateMutability": "nonpayable",
      "type": "function"
    },
    {
      "inputs": [
        {
          "internalType": "uint256",
          "name": "_loanId",
          "type": "uint256"
        }
      ],
      "name": "expectedLastPaymentTime",
      "outputs": [
        {
          "internalType": "uint256",
          "name": "",
          "type": "uint256"
        }
      ],
      "stateMutability": "view",
      "type": "function"
    },
    {
      "inputs": [],
      "name": "feeCurrency",
      "outputs": [
        {
          "internalType": "address",
          "name": "",
          "type": "address"
        }
      ],
      "stateMutability": "view",
      "type": "function"
    },
    {
      "inputs": [],
      "name": "feeTo",
      "outputs": [
        {
          "internalType": "address",
          "name": "",
          "type": "address"
        }
      ],
      "stateMutability": "view",
      "type": "function"
    },
    {
      "inputs": [
        {
          "internalType": "uint256",
          "name": "_loanId",
          "type": "uint256"
        }
      ],
      "name": "finalDebtAndPenalty",
      "outputs": [
        {
          "internalType": "uint256",
          "name": "",
          "type": "uint256"
        }
      ],
      "stateMutability": "view",
      "type": "function"
    },
    {
      "inputs": [
        {
          "internalType": "uint256",
          "name": "_loanId",
          "type": "uint256"
        }
      ],
      "name": "getBackFund",
      "outputs": [],
      "stateMutability": "payable",
      "type": "function"
    },
    {
      "inputs": [
        {
          "internalType": "uint256",
          "name": "_loanId",
          "type": "uint256"
        }
      ],
      "name": "getCollateralAsset",
      "outputs": [
        {
          "internalType": "address",
          "name": "_token",
          "type": "address"
        },
        {
          "internalType": "uint256",
          "name": "_amount",
          "type": "uint256"
        }
      ],
      "stateMutability": "view",
      "type": "function"
    },
    {
      "inputs": [
        {
          "internalType": "uint256",
          "name": "_loanId",
          "type": "uint256"
        }
      ],
      "name": "getLoanAsset",
      "outputs": [
        {
          "internalType": "address",
          "name": "_token",
          "type": "address"
        },
        {
          "internalType": "uint256",
          "name": "_amount",
          "type": "uint256"
        }
      ],
      "stateMutability": "view",
      "type": "function"
    },
    {
      "inputs": [
        {
          "internalType": "uint256",
          "name": "_loanId",
          "type": "uint256"
        }
      ],
      "name": "getLoanNFTCount",
      "outputs": [
        {
          "internalType": "uint256",
          "name": "",
          "type": "uint256"
        }
      ],
      "stateMutability": "view",
      "type": "function"
    },
    {
      "inputs": [
        {
          "internalType": "uint256",
          "name": "_loanId",
          "type": "uint256"
        },
        {
          "internalType": "uint256",
          "name": "_nftItemId",
          "type": "uint256"
        }
      ],
      "name": "getLoanNFTItem",
      "outputs": [
        {
          "internalType": "address",
          "name": "_nftAddress",
          "type": "address"
        },
        {
          "internalType": "uint256",
          "name": "_tokenId",
          "type": "uint256"
        }
      ],
      "stateMutability": "view",
      "type": "function"
    },
    {
      "inputs": [
        {
          "internalType": "uint256",
          "name": "_loanId",
          "type": "uint256"
        }
      ],
      "name": "getLoanRules",
      "outputs": [
        {
          "internalType": "uint16",
          "name": "tenor",
          "type": "uint16"
        },
        {
          "internalType": "uint16",
          "name": "LTV",
          "type": "uint16"
        },
        {
          "internalType": "uint16",
          "name": "interest",
          "type": "uint16"
        }
      ],
      "stateMutability": "view",
      "type": "function"
    },
    {
      "inputs": [],
      "name": "lateFee",
      "outputs": [
        {
          "internalType": "uint256",
          "name": "",
          "type": "uint256"
        }
      ],
      "stateMutability": "view",
      "type": "function"
    },
    {
      "inputs": [],
      "name": "loanIds",
      "outputs": [
        {
          "internalType": "uint256",
          "name": "_value",
          "type": "uint256"
        }
      ],
      "stateMutability": "view",
      "type": "function"
    },
    {
      "inputs": [
        {
          "internalType": "uint256",
          "name": "",
          "type": "uint256"
        }
      ],
      "name": "loans",
      "outputs": [
        {
          "internalType": "uint256",
          "name": "fundAmount",
          "type": "uint256"
        },
        {
          "internalType": "uint256",
          "name": "paidAmount",
          "type": "uint256"
        },
        {
          "internalType": "uint256",
          "name": "loanStart",
          "type": "uint256"
        },
        {
          "internalType": "uint256",
          "name": "postTime",
          "type": "uint256"
        },
        {
          "internalType": "uint256",
          "name": "restAmount",
          "type": "uint256"
        },
        {
          "internalType": "address",
          "name": "borrower",
          "type": "address"
        },
        {
          "internalType": "uint8",
          "name": "nrOfPenalty",
          "type": "uint8"
        },
        {
          "internalType": "uint8",
          "name": "passedTenors",
          "type": "uint8"
        },
        {
          "components": [
            {
              "internalType": "uint256",
              "name": "amount",
              "type": "uint256"
            },
            {
              "internalType": "address",
              "name": "currency",
              "type": "address"
            }
          ],
          "internalType": "struct TribeOne.Asset",
          "name": "loanAsset",
          "type": "tuple"
        },
        {
          "components": [
            {
              "internalType": "uint256",
              "name": "amount",
              "type": "uint256"
            },
            {
              "internalType": "address",
              "name": "currency",
              "type": "address"
            }
          ],
          "internalType": "struct TribeOne.Asset",
          "name": "collateralAsset",
          "type": "tuple"
        },
        {
          "internalType": "enum TribeOne.Status",
          "name": "status",
          "type": "uint8"
        },
        {
          "components": [
            {
              "internalType": "uint16",
              "name": "tenor",
              "type": "uint16"
            },
            {
              "internalType": "uint16",
              "name": "LTV",
              "type": "uint16"
            },
            {
              "internalType": "uint16",
              "name": "interest",
              "type": "uint16"
            }
          ],
          "internalType": "struct TribeOne.LoanRules",
          "name": "loanRules",
          "type": "tuple"
        }
      ],
      "stateMutability": "view",
      "type": "function"
    },
    {
      "inputs": [
        {
          "internalType": "uint256[]",
          "name": "_loanIds",
          "type": "uint256[]"
        },
        {
          "internalType": "address",
          "name": "_currency",
          "type": "address"
        }
      ],
      "name": "lockRestAmount",
      "outputs": [],
      "stateMutability": "nonpayable",
      "type": "function"
    },
    {
      "inputs": [
        {
          "internalType": "address",
          "name": "",
          "type": "address"
        },
        {
          "internalType": "address",
          "name": "",
          "type": "address"
        },
        {
          "internalType": "uint256[]",
          "name": "",
          "type": "uint256[]"
        },
        {
          "internalType": "uint256[]",
          "name": "",
          "type": "uint256[]"
        },
        {
          "internalType": "bytes",
          "name": "",
          "type": "bytes"
        }
      ],
      "name": "onERC1155BatchReceived",
      "outputs": [
        {
          "internalType": "bytes4",
          "name": "",
          "type": "bytes4"
        }
      ],
      "stateMutability": "nonpayable",
      "type": "function"
    },
    {
      "inputs": [
        {
          "internalType": "address",
          "name": "",
          "type": "address"
        },
        {
          "internalType": "address",
          "name": "",
          "type": "address"
        },
        {
          "internalType": "uint256",
          "name": "",
          "type": "uint256"
        },
        {
          "internalType": "uint256",
          "name": "",
          "type": "uint256"
        },
        {
          "internalType": "bytes",
          "name": "",
          "type": "bytes"
        }
      ],
      "name": "onERC1155Received",
      "outputs": [
        {
          "internalType": "bytes4",
          "name": "",
          "type": "bytes4"
        }
      ],
      "stateMutability": "nonpayable",
      "type": "function"
    },
    {
      "inputs": [
        {
          "internalType": "address",
          "name": "",
          "type": "address"
        },
        {
          "internalType": "address",
          "name": "",
          "type": "address"
        },
        {
          "internalType": "uint256",
          "name": "",
          "type": "uint256"
        },
        {
          "internalType": "bytes",
          "name": "",
          "type": "bytes"
        }
      ],
      "name": "onERC721Received",
      "outputs": [
        {
          "internalType": "bytes4",
          "name": "",
          "type": "bytes4"
        }
      ],
      "stateMutability": "nonpayable",
      "type": "function"
    },
    {
      "inputs": [],
      "name": "owner",
      "outputs": [
        {
          "internalType": "address",
          "name": "",
          "type": "address"
        }
      ],
      "stateMutability": "view",
      "type": "function"
    },
    {
      "inputs": [
        {
          "internalType": "uint256",
          "name": "_loanId",
          "type": "uint256"
        },
        {
          "internalType": "uint256",
          "name": "_amount",
          "type": "uint256"
        }
      ],
      "name": "payInstallment",
      "outputs": [],
      "stateMutability": "payable",
      "type": "function"
    },
    {
      "inputs": [],
      "name": "penaltyFee",
      "outputs": [
        {
          "internalType": "uint256",
          "name": "",
          "type": "uint256"
        }
      ],
      "stateMutability": "view",
      "type": "function"
    },
    {
      "inputs": [
        {
          "internalType": "uint256",
          "name": "_loanId",
          "type": "uint256"
        },
        {
          "internalType": "uint256",
          "name": "_amount",
          "type": "uint256"
        }
      ],
      "name": "postLiquidation",
      "outputs": [],
      "stateMutability": "payable",
      "type": "function"
    },
    {
      "inputs": [
        {
          "internalType": "uint256",
          "name": "_loanId",
          "type": "uint256"
        },
        {
          "internalType": "address",
          "name": "_agent",
          "type": "address"
        },
        {
          "internalType": "bool",
          "name": "_accepted",
          "type": "bool"
        }
      ],
      "name": "relayNFT",
      "outputs": [],
      "stateMutability": "payable",
      "type": "function"
    },
    {
      "inputs": [],
      "name": "renounceOwnership",
      "outputs": [],
      "stateMutability": "nonpayable",
      "type": "function"
    },
    {
      "inputs": [],
      "name": "salesManager",
      "outputs": [
        {
          "internalType": "address",
          "name": "",
          "type": "address"
        }
      ],
      "stateMutability": "view",
      "type": "function"
    },
    {
      "inputs": [
        {
          "internalType": "uint256",
          "name": "_loanId",
          "type": "uint256"
        }
      ],
      "name": "setLoanDefaulted",
      "outputs": [],
      "stateMutability": "nonpayable",
      "type": "function"
    },
    {
      "inputs": [
        {
          "internalType": "uint256",
          "name": "_loanId",
          "type": "uint256"
        }
      ],
      "name": "setLoanLiquidation",
      "outputs": [],
      "stateMutability": "nonpayable",
      "type": "function"
    },
    {
      "inputs": [
        {
          "internalType": "address",
          "name": "_feeTo",
          "type": "address"
        },
        {
          "internalType": "uint256",
          "name": "_lateFee",
          "type": "uint256"
        },
        {
          "internalType": "uint256",
          "name": "_penaltyFee",
          "type": "uint256"
        },
        {
          "internalType": "address",
          "name": "_salesManager",
          "type": "address"
        },
        {
          "internalType": "address",
          "name": "_assetManager",
          "type": "address"
        }
      ],
      "name": "setSettings",
      "outputs": [],
      "stateMutability": "nonpayable",
      "type": "function"
    },
    {
      "inputs": [
        {
          "internalType": "bytes4",
          "name": "interfaceId",
          "type": "bytes4"
        }
      ],
      "name": "supportsInterface",
      "outputs": [
        {
          "internalType": "bool",
          "name": "",
          "type": "bool"
        }
      ],
      "stateMutability": "view",
      "type": "function"
    },
    {
      "inputs": [
        {
          "internalType": "uint256",
          "name": "_loanId",
          "type": "uint256"
        }
      ],
      "name": "totalDebt",
      "outputs": [
        {
          "internalType": "uint256",
          "name": "",
          "type": "uint256"
        }
      ],
      "stateMutability": "view",
      "type": "function"
    },
    {
      "inputs": [
        {
          "internalType": "address",
          "name": "newOwner",
          "type": "address"
        }
      ],
      "name": "transferOwnership",
      "outputs": [],
      "stateMutability": "nonpayable",
      "type": "function"
    },
    {
      "inputs": [
        {
          "internalType": "uint256",
          "name": "_loanId",
          "type": "uint256"
        }
      ],
      "name": "withdrawNFT",
      "outputs": [],
      "stateMutability": "nonpayable",
      "type": "function"
    },
    {
      "stateMutability": "payable",
      "type": "receive"
    }
  ],
  "transactionHash": "0xa04c0a54c8179bea4460c164c6a515df844b166fbb85dda61d22b0bd0bca316b",
  "args": [
    "0x6C641CE6A7216F12d28692f9d8b2BDcdE812eD2b",
    "0x6C641CE6A7216F12d28692f9d8b2BDcdE812eD2b",
    "0xd8f50554055Be0276fa29F40Fb3227FE96B5D6c2",
    "0x75415C1a0fCE7A5E9D0cB3c6f359A9F2E2D812e4",
    "0x997036a4DC288C7d0C7C570e61dCdb54F0a3d6B2"
  ],
  "solcInputHash": "f00472026bfe7ac0abd472a42c757ebd",
  "bytecode": "0x60a06040523480156200001157600080fd5b50604051620044a5380380620044a583398101604081905262000034916200023e565b60006200004062000155565b600080546001600160a01b0319166001600160a01b03831690811782556040519293509160008051602062004485833981519152908290a350600180556001600160a01b038516158015906200009e57506001600160a01b03841615155b8015620000b357506001600160a01b03831615155b8015620000c857506001600160a01b03821615155b620000f05760405162461bcd60e51b8152600401620000e79062000328565b60405180910390fd5b600480546001600160a01b038088166001600160a01b0319928316179092556005805484841690831617905560068054928716929091169190911790556001600160601b0319606084901b166080526200014a8262000159565b50505050506200035f565b3390565b6200016362000155565b6001600160a01b03166200017662000212565b6001600160a01b0316146200019f5760405162461bcd60e51b8152600401620000e790620002f3565b6001600160a01b038116620001c85760405162461bcd60e51b8152600401620000e790620002ad565b600080546040516001600160a01b03808516939216916000805160206200448583398151915291a3600080546001600160a01b0319166001600160a01b0392909216919091179055565b6000546001600160a01b031690565b80516001600160a01b03811681146200023957600080fd5b919050565b600080600080600060a0868803121562000256578081fd5b620002618662000221565b9450620002716020870162000221565b9350620002816040870162000221565b9250620002916060870162000221565b9150620002a16080870162000221565b90509295509295909350565b60208082526026908201527f4f776e61626c653a206e6577206f776e657220697320746865207a65726f206160408201526564647265737360d01b606082015260800190565b6020808252818101527f4f776e61626c653a2063616c6c6572206973206e6f7420746865206f776e6572604082015260600190565b60208082526016908201527f54726962654f6e653a205a45524f206164647265737300000000000000000000604082015260600190565b60805160601c6140eb6200039a60003960008181610a2101528181610acf015281816117ce015281816125e401526126b001526140eb6000f3fe6080604052600436106102295760003560e01c80639695858f11610123578063c1a287e2116100ab578063e1ec3c681161006f578063e1ec3c68146105ef578063f23a6e6114610627578063f2fde38b14610647578063f87c59cc14610667578063f97595181461068757610230565b8063c1a287e2146103c8578063c22f46101461057a578063c5b6599f1461059a578063c8f87ccb146105af578063df9eb938146105cf57610230565b8063b112ea6e116100f2578063b112ea6e146104e7578063bc197c8114610507578063bdbfa3de14610527578063bec5740614610547578063bf79b7421461055a57610230565b80639695858f1461048a578063a3ada2d7146104aa578063af8747c2146104bf578063b0aa6808146104d257610230565b80633dc10ad4116101b1578063715018a611610175578063715018a61461040b578063724732a8146104205780637dc830d8146104405780638da5cb5b1461046057806394217ad11461047557610230565b80633dc10ad41461038b5780633f4de62f146103a057806346402a79146103b55780634e248cda146103c85780636028ce9f146103dd57610230565b8063150b7a02116101f8578063150b7a02146102cf5780631614b251146102fc57806321d0393a1461030f578063265e9a4c1461032f5780633a7caf201461035c57610230565b8063017e7e581461023557806301ffc9a714610260578063023245d71461028d5780630309db4a146102af57610230565b3661023057005b600080fd5b34801561024157600080fd5b5061024a61069c565b6040516102579190613538565b60405180910390f35b34801561026c57600080fd5b5061028061027b3660046133b7565b6106ab565b6040516102579190613600565b34801561029957600080fd5b506102ad6102a8366004613401565b6106d8565b005b3480156102bb57600080fd5b506102ad6102ca366004613401565b610719565b3480156102db57600080fd5b506102ef6102ea36600461311b565b610923565b604051610257919061360b565b6102ad61030a366004613401565b610933565b34801561031b57600080fd5b506102ad61032a366004613479565b610b88565b34801561033b57600080fd5b5061034f61034a366004613401565b610e0f565b6040516102579190613d84565b34801561036857600080fd5b5061037c610377366004613401565b610e73565b60405161025793929190613d66565b34801561039757600080fd5b5061034f610ea3565b3480156103ac57600080fd5b5061034f610ea9565b6102ad6103c3366004613458565b610eaf565b3480156103d457600080fd5b5061034f6111e0565b3480156103e957600080fd5b506103fd6103f8366004613458565b6111e7565b6040516102579291906135b5565b34801561041757600080fd5b506102ad61127b565b34801561042c57600080fd5b506102ad61043b366004613349565b611304565b34801561044c57600080fd5b5061034f61045b366004613401565b61143a565b34801561046c57600080fd5b5061024a61147a565b34801561048157600080fd5b5061024a611489565b34801561049657600080fd5b506103fd6104a5366004613401565b611498565b3480156104b657600080fd5b5061024a6114bf565b6102ad6104cd366004613419565b6114ce565b3480156104de57600080fd5b5061024a6117cc565b3480156104f357600080fd5b506103fd610502366004613401565b6117f0565b34801561051357600080fd5b506102ef610522366004613075565b611817565b34801561053357600080fd5b506102ad610542366004613401565b611828565b6102ad610555366004613458565b611929565b34801561056657600080fd5b506102ad6105753660046131e4565b611af7565b34801561058657600080fd5b5061034f610595366004613401565b611c01565b3480156105a657600080fd5b5061034f611c4b565b3480156105bb57600080fd5b506102ad6105ca366004613401565b611c51565b3480156105db57600080fd5b5061034f6105ea366004613401565b611d42565b3480156105fb57600080fd5b5061060f61060a366004613401565b611d57565b6040516102579c9b9a99989796959493929190613d9b565b34801561063357600080fd5b506102ef610642366004613181565b611e26565b34801561065357600080fd5b506102ad61066236600461305b565b611e37565b34801561067357600080fd5b506102ad61068236600461323a565b611ef7565b34801561069357600080fd5b5061034f6124fc565b6006546001600160a01b031681565b60006001600160e01b03198216630271189760e51b14806106d057506106d082612502565b90505b919050565b600260015414156107045760405162461bcd60e51b81526004016106fb90613c55565b60405180910390fd5b60026001556107128161251b565b5060018055565b6002600154141561073c5760405162461bcd60e51b81526004016106fb90613c55565b600260018190556000828152602091909152604090206008600a82015460ff16600c81111561077b57634e487b7160e01b600052602160045260246000fd5b146107985760405162461bcd60e51b81526004016106fb90613abb565b42620151806107a68461143a565b6107b09190613eb3565b106107cd5760405162461bcd60e51b81526004016106fb90613cdb565b600a8101805460ff19166009179055600c81015460005b818110156108d457600083600c01828154811061081157634e487b7160e01b600052603260045260246000fd5b6000918252602082200154600d860180546001600160a01b039092169350908490811061084e57634e487b7160e01b600052603260045260246000fd5b906000526020600020015490506108bf8230600460009054906101000a90046001600160a01b031688600e01878154811061089957634e487b7160e01b600052603260045260246000fd5b90600052602060002090602091828204019190069054906101000a900460ff16856127d1565b505080806108cc9061405d565b9150506107e4565b5060045460405184917fff6f4651f4fd73446c5a7a4c5eaa2b05686ad05806a08db92d320fd0e4df77ef91610912916001600160a01b031690613538565b60405180910390a250506001805550565b630a85bd0160e11b949350505050565b600081815260026020526040902060058101546001600160a01b03166109576128cd565b6001600160a01b03161461097d5760405162461bcd60e51b81526004016106fb906139a1565b600a8082015460ff16600c8111156109a557634e487b7160e01b600052602160045260246000fd5b146109c25760405162461bcd60e51b81526004016106fb90613abb565b426201518082600301546109d69190613eb3565b116109f35760405162461bcd60e51b81526004016106fb90613974565b600481015480610a155760405162461bcd60e51b81526004016106fb90613756565b60075415610aff5760007f00000000000000000000000000000000000000000000000000000000000000006001600160a01b031663313ce5676040518163ffffffff1660e01b815260040160206040518083038186803b158015610a7857600080fd5b505afa158015610a8c573d6000803e3d6000fd5b505050506040513d601f19601f82011682018060405250810190610ab091906134a4565b610abb90600a613f56565b600754610ac89190614027565b9050610afd7f0000000000000000000000000000000000000000000000000000000000000000610af66128cd565b30846128d1565b505b600a8201805460ff1916600b17905560078201546001600160a01b031680610b3757610b32610b2c6128cd565b836129c1565b610b4a565b610b4a8130610b446128cd565b856128d1565b837f54c34e2467de11ba056e6efc24455400a417eee8270ce874c1b548f0974ed59483604051610b7a9190613d84565b60405180910390a250505050565b610b906128cd565b6001600160a01b0316610ba161147a565b6001600160a01b031614610bc75760405162461bcd60e51b81526004016106fb90613a4f565b60026001541415610bea5760405162461bcd60e51b81526004016106fb90613c55565b600260018181556000858152602092909252604090912090600a82015460ff16600c811115610c2957634e487b7160e01b600052602160045260246000fd5b14610c465760405162461bcd60e51b81526004016106fb906138e8565b6001600160a01b038216610c6c5760405162461bcd60e51b81526004016106fb90613ba7565b8054600b82015462010000900461ffff166000610c8c83836101f4612a53565b905080861115610cae5760405162461bcd60e51b81526004016106fb90613af2565b600a8401805460ff19166002179055600784015484546001600160a01b0390911690610cda9088614046565b60068601556001600160a01b038116610d5657600554604051636f59503f60e01b81526001600160a01b0390911690636f59503f90610d1f9089908b906004016135b5565b600060405180830381600087803b158015610d3957600080fd5b505af1158015610d4d573d6000803e3d6000fd5b50505050610dbd565b6005546040516324b28b1560e11b81526001600160a01b0390911690634965162a90610d8a90899085908c9060040161354c565b600060405180830381600087803b158015610da457600080fd5b505af1158015610db8573d6000803e3d6000fd5b505050505b856001600160a01b0316887f5a2849283d692c6535b240a67d3be009f99e4c8c66a13e5238ecfe2ecd9e8f65838a604051610df99291906135b5565b60405180910390a3505060018055505050505050565b6000818152600260205260408120600181015482610e2c85611c01565b905060006103e86008548560060160000154610e489190614027565b610e529190613ef0565b905082610e5f8284613eb3565b610e699190614046565b9695505050505050565b6000908152600260205260409020600b015461ffff80821692620100008304821692640100000000900490911690565b60085481565b60075481565b60026001541415610ed25760405162461bcd60e51b81526004016106fb90613c55565b600260018190556000838152602091909152604090206003600a82015460ff16600c811115610f1157634e487b7160e01b600052602160045260246000fd5b1480610f4357506008600a82015460ff16600c811115610f4157634e487b7160e01b600052602160045260246000fd5b145b610f5f5760405162461bcd60e51b81526004016106fb90613abb565b6000610f6a84612a9b565b60078301549091506001600160a01b031680610f84573493505b60018301546000610f9487611c01565b600b86015490915060009061ffff16610fad8684614027565b610fb79190613ef0565b905080610fc48885613eb3565b1015610fe25760405162461bcd60e51b81526004016106fb90613b29565b610feb88612af7565b50600081610ff98885613eb3565b1115611017578161100a8885613eb3565b6110149190614046565b90505b6110218188614046565b96506001600160a01b038416611063578015611048576110486110426128cd565b826129c1565b60055461105e906001600160a01b0316886129c1565b611081565b6110818461106f6128cd565b6005546001600160a01b03168a6128d1565b868660010160008282546110959190613eb3565b9091555050600b860154600187015460009184916110b79161ffff1690614027565b6110c19190613ef0565b6005880154909150600160a81b900460ff168111156110f55760058701805460ff60a81b1916600160a81b60ff8416021790555b6008600a88015460ff16600c81111561111e57634e487b7160e01b600052602160045260246000fd5b141561113457600a8701805460ff191660031790555b8261113f8986613eb3565b141561119557600a8701805460ff1916600417905561115c6128cd565b60058801546001600160a01b03908116911614801561118757506005870154600160a01b900460ff16155b15611195576111958961251b565b887f337875b31ca148911f20ebb44d810f124d810dd362ca3065c8591e09b3fb73f533878b6040516111c99392919061354c565b60405180910390a250506001805550505050505050565b6201518081565b6000828152600260205260408120600c0180548291908490811061121b57634e487b7160e01b600052603260045260246000fd5b600091825260208083209091015486835260029091526040909120600d0180546001600160a01b039092169350908490811061126757634e487b7160e01b600052603260045260246000fd5b906000526020600020015490509250929050565b6112836128cd565b6001600160a01b031661129461147a565b6001600160a01b0316146112ba5760405162461bcd60e51b81526004016106fb90613a4f565b600080546040516001600160a01b03909116907f8be0079c531659141344cd1fd0a4f28419497f9722a3daafe3b4186f6b6457e0908390a3600080546001600160a01b0319169055565b600260015414156113275760405162461bcd60e51b81526004016106fb90613c55565b6002600155816000805b8281101561141657600086868381811061135b57634e487b7160e01b600052603260045260246000fd5b602090810292909201356000818152600290935260409092206007810154929350916001600160a01b03888116911614905080156113be5750600a8082015460ff16600c8111156113bc57634e487b7160e01b600052602160045260246000fd5b145b80156113db5750426201518082600301546113d99190613eb3565b115b156114015760048101546113ef9085613eb3565b600a8201805460ff1916600c17905593505b5050808061140e9061405d565b915050611331565b5060065461142f9084906001600160a01b031683612c02565b505060018055505050565b6000818152600260205260408120600581015461146490600160a81b900460ff1662015180614027565b81600201546114739190613eb3565b9392505050565b6000546001600160a01b031690565b6005546001600160a01b031681565b600090815260026020526040902060078101546006909101546001600160a01b0390911691565b6004546001600160a01b031681565b6114d66128cd565b6001600160a01b03166114e761147a565b6001600160a01b03161461150d5760405162461bcd60e51b81526004016106fb90613a4f565b600260015414156115305760405162461bcd60e51b81526004016106fb90613c55565b60026001819055600084815260208290526040902090600a82015460ff16600c81111561156d57634e487b7160e01b600052602160045260246000fd5b1461158a5760405162461bcd60e51b81526004016106fb906136a4565b6001600160a01b0383166115b05760405162461bcd60e51b81526004016106fb90613ba7565b81156116d857600c81015460005b818110156116945761168283600c0182815481106115ec57634e487b7160e01b600052603260045260246000fd5b9060005260206000200160009054906101000a90046001600160a01b0316863086600e01858154811061162f57634e487b7160e01b600052603260045260246000fd5b90600052602060002090602091828204019190069054906101000a900460ff1687600d01868154811061167257634e487b7160e01b600052603260045260246000fd5b90600052602060002001546127d1565b8061168c8161405d565b9150506115be565b50600a8201805460ff19166003179055426002830155600982015460088301546005546001600160a01b03928316926116d09184911683612c02565b505050611780565b600a8101805460ff191660069081179091556007820154908201546001600160a01b03909116908161175a57803410156117245760405162461bcd60e51b81526004016106fb90613a84565b8034111561173f5761173f8561173a8334614046565b6129c1565b600554611755906001600160a01b0316826129c1565b611774565b60055461177490839087906001600160a01b0316846128d1565b61177d86612c2a565b50505b826001600160a01b0316847f7aaf993782070c73bb2987e6cd8e60d71f407e727a8c44101a341680260ff500846040516117ba9190613600565b60405180910390a35050600180555050565b7f000000000000000000000000000000000000000000000000000000000000000081565b600090815260026020526040902060098101546008909101546001600160a01b0390911691565b63bc197c8160e01b95945050505050565b6002600154141561184b5760405162461bcd60e51b81526004016106fb90613c55565b600260018190556000828152602091909152604090206118696128cd565b60058201546001600160a01b0390811691161480156118ae57506001600a82015460ff16600c8111156118ac57634e487b7160e01b600052602160045260246000fd5b145b6118ca5760405162461bcd60e51b81526004016106fb90613bd7565b600a8101805460ff191660071790556118e282612c2a565b817fd7c51777aa8fac36ec01ee3c9f7e62a08837a6f6074d0d02d94ce108b3ae931161190c6128cd565b6040516119199190613538565b60405180910390a2505060018055565b6002600154141561194c5760405162461bcd60e51b81526004016106fb90613c55565b60026001556004546001600160a01b03166119656128cd565b6001600160a01b03161461198b5760405162461bcd60e51b81526004016106fb90613bd7565b60008281526002602052604090206009600a82015460ff16600c8111156119c257634e487b7160e01b600052602160045260246000fd5b146119df5760405162461bcd60e51b81526004016106fb906139cd565b60078101546001600160a01b031680156119f957826119fb565b345b92506000611a0885610e0f565b90506001600160a01b038216611a4557808411611a255783611a27565b805b600654909150611a40906001600160a01b0316826129c1565b611a82565b611a5882611a516128cd565b30876128d1565b808411611a655783611a67565b805b600654909150611a829083906001600160a01b031683612c5f565b600a838101805460ff1916909117905580841115611aaa57611aa48185614046565b60048401555b42600384015560405185907fb05ced90bd7d793d66e9da2b341f252ee2aeb662ca3680be0d5e73bab4f8da6790611ae49087908590613d8d565b60405180910390a2505060018055505050565b611aff6128cd565b6001600160a01b0316611b1061147a565b6001600160a01b031614611b365760405162461bcd60e51b81526004016106fb90613a4f565b6001600160a01b03821615801590611b5657506001600160a01b03851615155b611b725760405162461bcd60e51b81526004016106fb90613ba7565b600680546001600160a01b038088166001600160a01b031992831617909255600786905560088590556004805485841690831617905560058054848416921691909117908190556040517f7229d407fca4e1dddfa1d0522b2690427047eb8ab00d60ced49f011bcc39a14192611bf29289928992899289929116906135ce565b60405180910390a15050505050565b6000818152600260205260408120600b81015461271090611c2e90640100000000900461ffff1682613e8d565b6006830154611c419161ffff1690614027565b6114739190613ef0565b60035481565b60026001541415611c745760405162461bcd60e51b81526004016106fb90613c55565b600260018190556000828152602091909152604090206003600a82015460ff16600c811115611cb357634e487b7160e01b600052602160045260246000fd5b14611cd05760405162461bcd60e51b81526004016106fb90613abb565b42611cda8361143a565b10611cf75760405162461bcd60e51b81526004016106fb90613cdb565b611d0082612af7565b600a8101805460ff1916600817905560405182907f0789b7097e8066538cfaa1132488b132e14ba5f0c938c8b7aaf8cf40356aab0b90600090a2505060018055565b6000908152600260205260409020600c015490565b60026020818152600092835260409283902080546001820154938201546003830154600484015460058501548851808a018a526006870154815260078701546001600160a01b03908116828a01528a51808c018c526008890154815260098901548216818b0152600a8901548c51606081018e52600b909a015461ffff8082168c5262010000820481169c8c019c909c526401000000009004909a169b89019b909b52959994979396929582169460ff600160a01b8404811695600160a81b909404811694929391929116908c565b63f23a6e6160e01b95945050505050565b611e3f6128cd565b6001600160a01b0316611e5061147a565b6001600160a01b031614611e765760405162461bcd60e51b81526004016106fb90613a4f565b6001600160a01b038116611e9c5760405162461bcd60e51b81526004016106fb906136db565b600080546040516001600160a01b03808516939216917f8be0079c531659141344cd1fd0a4f28419497f9722a3daafe3b4186f6b6457e091a3600080546001600160a01b0319166001600160a01b0392909216919091179055565b60038a148015611f075750600284145b611f235760405162461bcd60e51b81526004016106fb90613864565b60008b8b6000818110611f4657634e487b7160e01b600052603260045260246000fd5b9050602002016020810190611f5b91906133df565b905060008c8c6001818110611f8057634e487b7160e01b600052603260045260246000fd5b9050602002016020810190611f9591906133df565b905060008d8d6002818110611fba57634e487b7160e01b600052603260045260246000fd5b9050602002016020810190611fcf91906133df565b905060008e8e6001818110611ff457634e487b7160e01b600052603260045260246000fd5b905060200201602081019061200991906133df565b61ffff161161202a5760405162461bcd60e51b81526004016106fb90613721565b60008e8e600081811061204d57634e487b7160e01b600052603260045260246000fd5b905060200201602081019061206291906133df565b61ffff16116120835760405162461bcd60e51b81526004016106fb90613c8c565b886120a05760405162461bcd60e51b81526004016106fb90613b60565b60008c8c60018181106120c357634e487b7160e01b600052603260045260246000fd5b90506020020160208101906120d8919061305b565b905060008d8d60008181106120fd57634e487b7160e01b600052603260045260246000fd5b9050602002016020810190612112919061305b565b60055460405163cc16574160e01b81529192506001600160a01b03169063cc16574190612143908490600401613538565b602060405180830381600087803b15801561215d57600080fd5b505af1158015612171573d6000803e3d6000fd5b505050506040513d601f19601f82011682018060405250810190612195919061339b565b6121b15760405162461bcd60e51b81526004016106fb906137e8565b6005546040516308409d7760e01b81526001600160a01b03909116906308409d77906121e1908590600401613538565b602060405180830381600087803b1580156121fb57600080fd5b505af115801561220f573d6000803e3d6000fd5b505050506040513d601f19601f82011682018060405250810190612233919061339b565b61224f5760405162461bcd60e51b81526004016106fb90613a04565b806001600160a01b0316826001600160a01b03161415801561227957506001600160a01b03821615155b6122955760405162461bcd60e51b81526004016106fb90613663565b8a871480156122a45750855187145b6122c05760405162461bcd60e51b81526004016106fb9061378b565b6122ca6003612d45565b60006122d66003612d4e565b905060008b8b60008181106122fb57634e487b7160e01b600052603260045260246000fd5b90506020020135905060008c8c600181811061232757634e487b7160e01b600052603260045260246000fd5b90506020020135905061233c85610af66128cd565b8e8e60026000868152602001908152602001600020600c019190612361929190612d52565b5061236a6128cd565b60008481526002602081815260408084206005810180546001600160a01b039788166001600160a01b031991821617909155825180840184528681528b88168186019081528b88528686529051600684015551600783018054918916918316919091179055825180840184528881528c88168186019081528b8852868652905160088401555160098301805491909816911617909555805160608101825261ffff808f1682528d81168285019081528d8216938301938452958a9052939092529051600b850180549451925184166401000000000265ffff0000000019938516620100000263ffff0000199390951661ffff199096169590951791909116929092171691909117905561248190600d018c8c612db5565b506000838152600260209081526040909120838155600a8101805460ff191660011790558a516124b992600e909201918c0190612df0565b50604051339084907f1e6e02c9589612d091b6d88e3f0a4af8853df1573895d33dc5bd10f27bfbc59790600090a350505050505050505050505050505050505050565b6101f481565b6001600160e01b031981166301ffc9a760e01b14919050565b60008181526002602052604090206004600a82015460ff16600c81111561255257634e487b7160e01b600052602160045260246000fd5b1461256f5760405162461bcd60e51b81526004016106fb9061391f565b60006125796128cd565b60058301549091506001600160a01b038083169116146125ab5760405162461bcd60e51b81526004016106fb90613bd7565b600a8201805460ff1916600590811790915582015460ff600160a01b90910416158015906125db57506000600754115b156126e35760007f00000000000000000000000000000000000000000000000000000000000000006001600160a01b031663313ce5676040518163ffffffff1660e01b815260040160206040518083038186803b15801561263b57600080fd5b505afa15801561264f573d6000803e3d6000fd5b505050506040513d601f19601f8201168201806040525081019061267391906134a4565b61267e90600a613f56565b600754600585015461269a9190600160a01b900460ff16614027565b6126a49190614027565b6006549091506126e1907f00000000000000000000000000000000000000000000000000000000000000009084906001600160a01b0316846128d1565b505b600c82015460005b818110156127a057600084600c01828154811061271857634e487b7160e01b600052603260045260246000fd5b6000918252602082200154600d870180546001600160a01b039092169350908490811061275557634e487b7160e01b600052603260045260246000fd5b9060005260206000200154905061278b82308789600e01878154811061089957634e487b7160e01b600052603260045260246000fd5b505080806127989061405d565b9150506126eb565b50837f4459793bb7ed080476f037ed5016eb5366299d029547cdb92e50d4b18cf9d49283604051610b7a9190613538565b60008260018111156127f357634e487b7160e01b600052602160045260246000fd5b141561286057604051632142170760e11b81526001600160a01b038616906342842e0e906128299087908790869060040161354c565b600060405180830381600087803b15801561284357600080fd5b505af1158015612857573d6000803e3d6000fd5b505050506128c6565b604051637921219560e11b81526001600160a01b0386169063f242432a9061289390879087908690600190600401613570565b600060405180830381600087803b1580156128ad57600080fd5b505af11580156128c1573d6000803e3d6000fd5b505050505b5050505050565b3390565b600080856001600160a01b03166323b872dd8686866040516024016128f89392919061354c565b6040516020818303038152906040529060e01b6020820180516001600160e01b03838183161783525050505060405161293191906134ff565b6000604051808303816000865af19150503d806000811461296e576040519150601f19603f3d011682016040523d82523d6000602084013e612973565b606091505b509150915081801561299d57508051158061299d57508080602001905181019061299d919061339b565b6129b95760405162461bcd60e51b81526004016106fb90613c04565b505050505050565b604080516000808252602082019092526001600160a01b0384169083906040516129eb91906134ff565b60006040518083038185875af1925050503d8060008114612a28576040519150601f19603f3d011682016040523d82523d6000602084013e612a2d565b606091505b5050905080612a4e5760405162461bcd60e51b81526004016106fb90613d12565b505050565b600082612a725760405162461bcd60e51b81526004016106fb90613620565b82612a7f83612710613eb3565b612a899086614027565b612a939190613ef0565b949350505050565b6000818152600260208190526040822001548162015180612abc8342614046565b612ac69190613ef0565b6000858152600260205260409020600b015490915061ffff16808211612aec5781612aee565b805b95945050505050565b60008181526002602052604090206003600a82015460ff16600c811115612b2e57634e487b7160e01b600052602160045260246000fd5b1480612b6057506008600a82015460ff16600c811115612b5e57634e487b7160e01b600052602160045260246000fd5b145b612b7c5760405162461bcd60e51b81526004016106fb9061382d565b6000612b8783612a9b565b6005830154909150600160a81b900460ff1680821115612bfc5760058301805460ff60a81b1916600160a81b60ff851602179055612bc58183614046565b600584018054601490612be3908490600160a01b900460ff16613ecb565b92506101000a81548160ff021916908360ff1602179055505b50505050565b6001600160a01b038316612c1f57612c1a82826129c1565b612a4e565b612a4e838383612c5f565b60008181526002602052604090206009810154600882015460058301546001600160a01b0392831692166128c6838284612c02565b600080846001600160a01b031663a9059cbb8585604051602401612c849291906135b5565b6040516020818303038152906040529060e01b6020820180516001600160e01b038381831617835250505050604051612cbd91906134ff565b6000604051808303816000865af19150503d8060008114612cfa576040519150601f19603f3d011682016040523d82523d6000602084013e612cff565b606091505b5091509150818015612d29575080511580612d29575080806020019051810190612d29919061339b565b6128c65760405162461bcd60e51b81526004016106fb9061389b565b80546001019055565b5490565b828054828255906000526020600020908101928215612da5579160200282015b82811115612da55781546001600160a01b0319166001600160a01b03843516178255602090920191600190910190612d72565b50612db1929150612ea9565b5090565b828054828255906000526020600020908101928215612da5579160200282015b82811115612da5578235825591602001919060010190612dd5565b82805482825590600052602060002090601f01602090048101928215612da55791602002820160005b83821115612e7357835183826101000a81548160ff02191690836001811115612e5257634e487b7160e01b600052602160045260246000fd5b02179055509260200192600101602081600001049283019260010302612e19565b8015612ea05782816101000a81549060ff0219169055600101602081600001049283019260010302612e73565b5050612db19291505b5b80821115612db15760008155600101612eaa565b80356001600160a01b03811681146106d357600080fd5b60008083601f840112612ee6578182fd5b50813567ffffffffffffffff811115612efd578182fd5b6020830191508360208083028501011115612f1757600080fd5b9250929050565b600082601f830112612f2e578081fd5b81356020612f43612f3e83613e69565b613e3f565b8281528181019085830183850287018401881015612f5f578586fd5b855b85811015612f8957813560028110612f77578788fd5b84529284019290840190600101612f61565b5090979650505050505050565b600082601f830112612fa6578081fd5b81356020612fb6612f3e83613e69565b8281528181019085830183850287018401881015612fd2578586fd5b855b85811015612f8957813584529284019290840190600101612fd4565b600082601f830112613000578081fd5b813567ffffffffffffffff81111561301a5761301a61408e565b61302d601f8201601f1916602001613e3f565b818152846020838601011115613041578283fd5b816020850160208301379081016020019190915292915050565b60006020828403121561306c578081fd5b61147382612ebe565b600080600080600060a0868803121561308c578081fd5b61309586612ebe565b94506130a360208701612ebe565b9350604086013567ffffffffffffffff808211156130bf578283fd5b6130cb89838a01612f96565b945060608801359150808211156130e0578283fd5b6130ec89838a01612f96565b93506080880135915080821115613101578283fd5b5061310e88828901612ff0565b9150509295509295909350565b60008060008060808587031215613130578384fd5b61313985612ebe565b935061314760208601612ebe565b925060408501359150606085013567ffffffffffffffff811115613169578182fd5b61317587828801612ff0565b91505092959194509250565b600080600080600060a08688031215613198578081fd5b6131a186612ebe565b94506131af60208701612ebe565b93506040860135925060608601359150608086013567ffffffffffffffff8111156131d8578182fd5b61310e88828901612ff0565b600080600080600060a086880312156131fb578081fd5b61320486612ebe565b9450602086013593506040860135925061322060608701612ebe565b915061322e60808701612ebe565b90509295509295909350565b600080600080600080600080600080600060c08c8e03121561325a578889fd5b67ffffffffffffffff808d35111561327057898afd5b61327d8e8e358f01612ed5565b909c509a5060208d013581101561329257898afd5b6132a28e60208f01358f01612ed5565b909a50985060408d01358110156132b7578687fd5b6132c78e60408f01358f01612ed5565b909850965060608d01358110156132dc578586fd5b6132ec8e60608f01358f01612ed5565b909650945060808d0135811015613301578384fd5b6133118e60808f01358f01612ed5565b909450925060a08d0135811015613326578182fd5b506133378d60a08e01358e01612f1e565b90509295989b509295989b9093969950565b60008060006040848603121561335d578081fd5b833567ffffffffffffffff811115613373578182fd5b61337f86828701612ed5565b9094509250613392905060208501612ebe565b90509250925092565b6000602082840312156133ac578081fd5b8151611473816140a4565b6000602082840312156133c8578081fd5b81356001600160e01b031981168114611473578182fd5b6000602082840312156133f0578081fd5b813561ffff81168114611473578182fd5b600060208284031215613412578081fd5b5035919050565b60008060006060848603121561342d578081fd5b8335925061343d60208501612ebe565b9150604084013561344d816140a4565b809150509250925092565b6000806040838503121561346a578182fd5b50508035926020909101359150565b60008060006060848603121561348d578081fd5b833592506020840135915061339260408501612ebe565b6000602082840312156134b5578081fd5b815160ff81168114611473578182fd5b805182526020908101516001600160a01b0316910152565b805161ffff908116835260208083015182169084015260409182015116910152565b60008251815b8181101561351f5760208186018101518583015201613505565b8181111561352d5782828501525b509190910192915050565b6001600160a01b0391909116815260200190565b6001600160a01b039384168152919092166020820152604081019190915260600190565b6001600160a01b0394851681529290931660208301526040820152606081019190915260a060808201819052600490820152630307830360e41b60c082015260e00190565b6001600160a01b03929092168252602082015260400190565b6001600160a01b0395861681526020810194909452604084019290925283166060830152909116608082015260a00190565b901515815260200190565b6001600160e01b031991909116815260200190565b60208082526023908201527f54726962654f6e6548656c7065723a204c54562073686f756c64206e6f74206260408201526206520360ec1b606082015260800190565b60208082526021908201527f54726962654f6e653a2057726f6e6720636f6c6c61746572616c2061737365746040820152607360f81b606082015260800190565b6020808252601b908201527f54726962654f6e653a204e6f7420617070726f766564206c6f616e0000000000604082015260600190565b60208082526026908201527f4f776e61626c653a206e6577206f776e657220697320746865207a65726f206160408201526564647265737360d01b606082015260800190565b6020808252818101527f54726962654f6e653a204c54562073686f756c64206e6f74206265205a45524f604082015260600190565b6020808252818101527f54726962654f6e653a204e6f20616d6f756e7420746f2067697665206261636b604082015260600190565b6020808252603d908201527f54726962654f6e653a204e46542070726f766964656420696e666f726d61746960408201527f6f6e7320617265206d697373696e67206f7220696e636f6d706c657465000000606082015260800190565b60208082526025908201527f54726962654f6e653a204c6f616e206173736574206973206e6f7420617661696040820152646c61626c6560d81b606082015260800190565b6020808252601a908201527f54726962654f6e653a204e6f742061637469766564206c6f616e000000000000604082015260600190565b6020808252601b908201527f54726962654f6e653a20496e76616c696420706172616d657465720000000000604082015260600190565b6020808252602d908201527f54726962654f6e6548656c7065723a3a736166655472616e736665723a20747260408201526c185b9cd9995c8819985a5b1959609a1b606082015260800190565b60208082526019908201527f54726962654f6e653a20496e76616c6964207265717565737400000000000000604082015260600190565b60208082526035908201527f54726962654f6e653a20496e76616c696420737461747573202d20796f752068604082015274617665207374696c6c206465627420746f2070617960581b606082015260800190565b6020808252601390820152722a3934b132a7b7329d102a34b6b29037bb32b960691b604082015260600190565b6020808252601290820152712a3934b127b7329d102337b93134b23232b760711b604082015260600190565b60208082526018908201527f54726962654f6e653a20696e76616c6964207374617475730000000000000000604082015260600190565b6020808252602b908201527f54726962654f6e653a20436f6c6c61746572616c206173736574206973206e6f60408201526a7420617661696c61626c6560a81b606082015260800190565b6020808252818101527f4f776e61626c653a2063616c6c6572206973206e6f7420746865206f776e6572604082015260600190565b6020808252601f908201527f54726962654f6e653a204c657373207468616e206c6f616e20616d6f756e7400604082015260600190565b60208082526018908201527f54726962654f6e653a20496e76616c6964207374617475730000000000000000604082015260600190565b60208082526018908201527f54726962654f6e653a20496e76616c696420616d6f756e740000000000000000604082015260600190565b6020808252601d908201527f54726962654f6e653a20496e73756666696369656e7420416d6f756e74000000604082015260600190565b60208082526027908201527f54726962654f6e653a204c6f616e206d7573742068617665206174206c6561736040820152661d080c4813919560ca1b606082015260800190565b60208082526016908201527554726962654f6e653a205a45524f206164647265737360501b604082015260600190565b6020808252601390820152722a3934b132a7b7329d102337b93134b23232b760691b604082015260600190565b60208082526031908201527f54726962654f6e6548656c7065723a3a7472616e7366657246726f6d3a207472604082015270185b9cd9995c919c9bdb4819985a5b1959607a1b606082015260800190565b6020808252601f908201527f5265656e7472616e637947756172643a207265656e7472616e742063616c6c00604082015260600190565b6020808252602f908201527f54726962654f6e653a204c6f616e206d7573742068617665206174206c65617360408201526e1d080c481a5b9cdd185b1b1b595b9d608a1b606082015260800190565b6020808252601f908201527f54726962654f6e653a204e6f74206f7665726475656420646174652079657400604082015260600190565b60208082526034908201527f54726962654f6e6548656c7065723a3a736166655472616e736665724554483a60408201527308115512081d1c985b9cd9995c8819985a5b195960621b606082015260800190565b61ffff93841681529183166020830152909116604082015260600190565b90815260200190565b918252602082015260400190565b8c8152602081018c9052604081018b9052606081018a9052608081018990526001600160a01b03881660a082015260ff87811660c0830152861660e08201526102008101613ded6101008301876134c5565b613dfb6101408301866134c5565b600d8410613e1957634e487b7160e01b600052602160045260246000fd5b83610180830152613e2e6101a08301846134dd565b9d9c50505050505050505050505050565b60405181810167ffffffffffffffff81118282101715613e6157613e6161408e565b604052919050565b600067ffffffffffffffff821115613e8357613e8361408e565b5060209081020190565b600061ffff808316818516808303821115613eaa57613eaa614078565b01949350505050565b60008219821115613ec657613ec6614078565b500190565b600060ff821660ff84168060ff03821115613ee857613ee8614078565b019392505050565b600082613f0b57634e487b7160e01b81526012600452602481fd5b500490565b80825b6001808611613f225750613f4d565b818704821115613f3457613f34614078565b80861615613f4157918102915b9490941c938002613f13565b94509492505050565b600061147360001960ff851684600082613f7257506001611473565b81613f7f57506000611473565b8160018114613f955760028114613f9f57613fcc565b6001915050611473565b60ff841115613fb057613fb0614078565b6001841b915084821115613fc657613fc6614078565b50611473565b5060208310610133831016604e8410600b8410161715613fff575081810a83811115613ffa57613ffa614078565b611473565b61400c8484846001613f10565b80860482111561401e5761401e614078565b02949350505050565b600081600019048311821515161561404157614041614078565b500290565b60008282101561405857614058614078565b500390565b600060001982141561407157614071614078565b5060010190565b634e487b7160e01b600052601160045260246000fd5b634e487b7160e01b600052604160045260246000fd5b80151581146140b257600080fd5b5056fea2646970667358221220c2a6ffbf54fef9d72822ad03a191fccc29f46fb689520cfc1930c14879922a8164736f6c634300080000338be0079c531659141344cd1fd0a4f28419497f9722a3daafe3b4186f6b6457e0",
  "devdoc": {
    "kind": "dev",
    "methods": {
      "createLoan(uint16[],address[],address[],uint256[],uint256[],uint8[])": {
        "details": "_fundAmount shoud be amount in loan currency, and _collateralAmount should be in collateral currency"
      },
      "getBackFund(uint256)": {
        "details": "User can get back the rest money through this function, but he should pay late fee."
      },
      "lockRestAmount(uint256[],address)": {
        "details": "if user does not want to get back rest of money due to some reasons, such as gas fee... we will transfer rest money to our fee address (after 14 days notification). For saving gas fee, we will transfer once for the one kind of token."
      },
      "onERC721Received(address,address,uint256,bytes)": {
        "details": "See {IERC721Receiver-onERC721Received}. Always returns `IERC721Receiver.onERC721Received.selector`."
      },
      "owner()": {
        "details": "Returns the address of the current owner."
      },
      "postLiquidation(uint256,uint256)": {
        "details": "after sold NFT set in market place, and give that fund back to TribeOne Only sales manager can do this"
      },
      "relayNFT(uint256,address,bool)": {
        "details": "_loanId: loanId, _accepted: order to Partner is succeeded or not loan will be back to TribeOne if accepted is false"
      },
      "renounceOwnership()": {
        "details": "Leaves the contract without owner. It will not be possible to call `onlyOwner` functions anymore. Can only be called by the current owner. NOTE: Renouncing ownership will leave the contract without an owner, thereby removing any functionality that is only available to the owner."
      },
      "supportsInterface(bytes4)": {
        "details": "See {IERC165-supportsInterface}."
      },
      "transferOwnership(address)": {
        "details": "Transfers ownership of the contract to a new account (`newOwner`). Can only be called by the current owner."
      }
    },
    "version": 1
  },
  "userdoc": {
    "kind": "user",
    "methods": {},
    "version": 1
  },
  "storageLayout": {
    "storage": [
      {
        "astId": 7,
        "contract": "contracts/TribeOne.sol:TribeOne",
        "label": "_owner",
        "offset": 0,
        "slot": "0",
        "type": "t_address"
      },
      {
        "astId": 120,
        "contract": "contracts/TribeOne.sol:TribeOne",
        "label": "_status",
        "offset": 0,
        "slot": "1",
        "type": "t_uint256"
      },
      {
        "astId": 5419,
        "contract": "contracts/TribeOne.sol:TribeOne",
        "label": "loans",
        "offset": 0,
        "slot": "2",
        "type": "t_mapping(t_uint256,t_struct(Loan)5414_storage)"
      },
      {
        "astId": 5422,
        "contract": "contracts/TribeOne.sol:TribeOne",
        "label": "loanIds",
        "offset": 0,
        "slot": "3",
        "type": "t_struct(Counter)3755_storage"
      },
      {
        "astId": 5433,
        "contract": "contracts/TribeOne.sol:TribeOne",
        "label": "salesManager",
        "offset": 0,
        "slot": "4",
        "type": "t_address"
      },
      {
        "astId": 5435,
        "contract": "contracts/TribeOne.sol:TribeOne",
        "label": "assetManager",
        "offset": 0,
        "slot": "5",
        "type": "t_address"
      },
      {
        "astId": 5437,
        "contract": "contracts/TribeOne.sol:TribeOne",
        "label": "feeTo",
        "offset": 0,
        "slot": "6",
        "type": "t_address"
      },
      {
        "astId": 5441,
        "contract": "contracts/TribeOne.sol:TribeOne",
        "label": "lateFee",
        "offset": 0,
        "slot": "7",
        "type": "t_uint256"
      },
      {
        "astId": 5443,
        "contract": "contracts/TribeOne.sol:TribeOne",
        "label": "penaltyFee",
        "offset": 0,
        "slot": "8",
        "type": "t_uint256"
      }
    ],
    "types": {
      "t_address": {
        "encoding": "inplace",
        "label": "address",
        "numberOfBytes": "20"
      },
      "t_array(t_address)dyn_storage": {
        "base": "t_address",
        "encoding": "dynamic_array",
        "label": "address[]",
        "numberOfBytes": "32"
      },
      "t_array(t_enum(TokenType)7616)dyn_storage": {
        "base": "t_enum(TokenType)7616",
        "encoding": "dynamic_array",
        "label": "enum TribeOneHelper.TokenType[]",
        "numberOfBytes": "32"
      },
      "t_array(t_uint256)dyn_storage": {
        "base": "t_uint256",
        "encoding": "dynamic_array",
        "label": "uint256[]",
        "numberOfBytes": "32"
      },
      "t_enum(Status)5363": {
        "encoding": "inplace",
        "label": "enum TribeOne.Status",
        "numberOfBytes": "1"
      },
      "t_enum(TokenType)7616": {
        "encoding": "inplace",
        "label": "enum TribeOneHelper.TokenType",
        "numberOfBytes": "1"
      },
      "t_mapping(t_uint256,t_struct(Loan)5414_storage)": {
        "encoding": "mapping",
        "key": "t_uint256",
        "label": "mapping(uint256 => struct TribeOne.Loan)",
        "numberOfBytes": "32",
        "value": "t_struct(Loan)5414_storage"
      },
      "t_struct(Asset)5368_storage": {
        "encoding": "inplace",
        "label": "struct TribeOne.Asset",
        "members": [
          {
            "astId": 5365,
            "contract": "contracts/TribeOne.sol:TribeOne",
            "label": "amount",
            "offset": 0,
            "slot": "0",
            "type": "t_uint256"
          },
          {
            "astId": 5367,
            "contract": "contracts/TribeOne.sol:TribeOne",
            "label": "currency",
            "offset": 0,
            "slot": "1",
            "type": "t_address"
          }
        ],
        "numberOfBytes": "64"
      },
      "t_struct(Counter)3755_storage": {
        "encoding": "inplace",
        "label": "struct Counters.Counter",
        "members": [
          {
            "astId": 3754,
            "contract": "contracts/TribeOne.sol:TribeOne",
            "label": "_value",
            "offset": 0,
            "slot": "0",
            "type": "t_uint256"
          }
        ],
        "numberOfBytes": "32"
      },
      "t_struct(Loan)5414_storage": {
        "encoding": "inplace",
        "label": "struct TribeOne.Loan",
        "members": [
          {
            "astId": 5377,
            "contract": "contracts/TribeOne.sol:TribeOne",
            "label": "fundAmount",
            "offset": 0,
            "slot": "0",
            "type": "t_uint256"
          },
          {
            "astId": 5379,
            "contract": "contracts/TribeOne.sol:TribeOne",
            "label": "paidAmount",
            "offset": 0,
            "slot": "1",
            "type": "t_uint256"
          },
          {
            "astId": 5381,
            "contract": "contracts/TribeOne.sol:TribeOne",
            "label": "loanStart",
            "offset": 0,
            "slot": "2",
            "type": "t_uint256"
          },
          {
            "astId": 5383,
            "contract": "contracts/TribeOne.sol:TribeOne",
            "label": "postTime",
            "offset": 0,
            "slot": "3",
            "type": "t_uint256"
          },
          {
            "astId": 5385,
            "contract": "contracts/TribeOne.sol:TribeOne",
            "label": "restAmount",
            "offset": 0,
            "slot": "4",
            "type": "t_uint256"
          },
          {
            "astId": 5387,
            "contract": "contracts/TribeOne.sol:TribeOne",
            "label": "borrower",
            "offset": 0,
            "slot": "5",
            "type": "t_address"
          },
          {
            "astId": 5389,
            "contract": "contracts/TribeOne.sol:TribeOne",
            "label": "nrOfPenalty",
            "offset": 20,
            "slot": "5",
            "type": "t_uint8"
          },
          {
            "astId": 5391,
            "contract": "contracts/TribeOne.sol:TribeOne",
            "label": "passedTenors",
            "offset": 21,
            "slot": "5",
            "type": "t_uint8"
          },
          {
            "astId": 5394,
            "contract": "contracts/TribeOne.sol:TribeOne",
            "label": "loanAsset",
            "offset": 0,
            "slot": "6",
            "type": "t_struct(Asset)5368_storage"
          },
          {
            "astId": 5397,
            "contract": "contracts/TribeOne.sol:TribeOne",
            "label": "collateralAsset",
            "offset": 0,
            "slot": "8",
            "type": "t_struct(Asset)5368_storage"
          },
          {
            "astId": 5400,
            "contract": "contracts/TribeOne.sol:TribeOne",
            "label": "status",
            "offset": 0,
            "slot": "10",
            "type": "t_enum(Status)5363"
          },
          {
            "astId": 5403,
            "contract": "contracts/TribeOne.sol:TribeOne",
            "label": "loanRules",
            "offset": 0,
            "slot": "11",
            "type": "t_struct(LoanRules)5375_storage"
          },
          {
            "astId": 5406,
            "contract": "contracts/TribeOne.sol:TribeOne",
            "label": "nftAddressArray",
            "offset": 0,
            "slot": "12",
            "type": "t_array(t_address)dyn_storage"
          },
          {
            "astId": 5409,
            "contract": "contracts/TribeOne.sol:TribeOne",
            "label": "nftTokenIdArray",
            "offset": 0,
            "slot": "13",
            "type": "t_array(t_uint256)dyn_storage"
          },
          {
            "astId": 5413,
            "contract": "contracts/TribeOne.sol:TribeOne",
            "label": "nftTokenTypeArray",
            "offset": 0,
            "slot": "14",
            "type": "t_array(t_enum(TokenType)7616)dyn_storage"
          }
        ],
        "numberOfBytes": "480"
      },
      "t_struct(LoanRules)5375_storage": {
        "encoding": "inplace",
        "label": "struct TribeOne.LoanRules",
        "members": [
          {
            "astId": 5370,
            "contract": "contracts/TribeOne.sol:TribeOne",
            "label": "tenor",
            "offset": 0,
            "slot": "0",
            "type": "t_uint16"
          },
          {
            "astId": 5372,
            "contract": "contracts/TribeOne.sol:TribeOne",
            "label": "LTV",
            "offset": 2,
            "slot": "0",
            "type": "t_uint16"
          },
          {
            "astId": 5374,
            "contract": "contracts/TribeOne.sol:TribeOne",
            "label": "interest",
            "offset": 4,
            "slot": "0",
            "type": "t_uint16"
          }
        ],
        "numberOfBytes": "32"
      },
      "t_uint16": {
        "encoding": "inplace",
        "label": "uint16",
        "numberOfBytes": "2"
      },
      "t_uint256": {
        "encoding": "inplace",
        "label": "uint256",
        "numberOfBytes": "32"
      },
      "t_uint8": {
        "encoding": "inplace",
        "label": "uint8",
        "numberOfBytes": "1"
      }
    }
  }
}